:020000041000EA
:1000000000B5324B212058609868022188439860DF
:10001000D860186158612E4B002199600221596106
:100020000121F02299502B49196001219960352056
:1000300000F044F80222904214D00621196600F024
:1000400034F8196E01211966002018661A6600F04E
:100050002CF8196E196E196E052000F02FF8012189
:100060000842F9D1002199601B49196000215960AB
:100070001A491B48016001219960EB211966A021F2
:10008000196600F012F800219960164914480160C1
:100090000121996001BC002800D000471248134993
:1000A000086003C880F30888084703B5996A0420EC
:1000B0000142FBD001200142F8D103BD02B5186610
:1000C0001866FFF7F2FF186E186E02BD00000240BE
:1000D000000000180000070000035F00212200005C
:1000E000F4000018222000A00001001008ED00E03C
:1000F00000000000000000000000000074B24E7A12
:1001000000200420F7010010C3010010C5010010F9
:10011000C1010010C1010010C1010010C101001097
:10012000C1010010C1010010C1010010C701001081
:10013000C1010010C1010010C9010010CB01001065
:10014000CD010010CD010010CD010010CD01001037
:10015000CD010010CD010010CD010010CD01001027
:10016000CD010010CD010010CD010010CD01001017
:10017000CD010010CD010010CD010010CD01001007
:10018000CD010010CD010010CD010010CD010010F7
:10019000CD010010CD010010CD010010CD010010E7
:1001A000CD010010CD010010CD010010CD010010D7
:1001B000CD010010CD010010CD010010CD010010C7
:1001C00000BE00BE00BE00BE00BE00BE00F04BF888
:1001D000103800BEF2EB8871205900103C59001015
:1001E0003402001090A31AE700202149086006C8D5
:1001F00081F3088810471F48006800282FD10DA4FC
:100200000ECC002902D000F012F8F9E71A491B4A77
:10021000002000E001C19142FCD1194988471949E9
:1002200088471949884700BEFDE701C901C29A42C3
:10023000FBD370473C590010C0000020D40B0020B5
:1002400050640010000004200000042050640010DE
:1002500000100420001004200000000070470B482C
:1002600003F0ACFC0047EFF30580C0B2704700001C
:1002700008ED00E0000000D0D80B0020441300205F
:1002800079360010E502001099370010575600002B
:1002900006005250ABB36053CC58001006005250C9
:1002A000861C0302DC580010060052505422A29D06
:1002B000E858001005005250DE65F46850640010E4
:1002C000F8B5C046044B10B5002B03D003490448D1
:1002D00000E000BF10BDC04600000000DC1100209F
:1002E000E852001010B584B06946184B68461A6889
:1002F00000929A888A809A6802929B8902AA8B81CE
:10030000134B1960134B1A6000F028F802A800F094
:1003100025F800F043FA104C00F016FB01280BD032
:1003200002280FD00028F7D100F014FE00F054FE90
:1003300000F00AFB0128F3D100F0B2FC012000F02C
:1003400059FDE9E7200001F051FCE5E7E852001013
:10035000D0110020CC110020CC02002070B5040088
:1003600000781C283FD8012601F0FEFE32002378D9
:10037000D0259A402D066A62AA61E0781C2832D8FE
:1003800001F0F2FE3200E3789A406A62AA61A07836
:100390001C2821D9FF23A37060781C2812D9FF23C1
:1003A000637020791C2803D9FF232371002070BDBE
:1003B00001F0DAFE012322799340D0221206536223
:1003C0005361F3E701F0D0FE012362789340D0221D
:1003D000120653629361E4E701F0C6FEA3789E40E3
:1003E0006E62AE61D8E701204042E0E7F0B54E46CC
:1003F0004546DE465746E0B583B00E001500019035
:10040000002978D002000378012001009940D378B8
:100410000222984001239B46D02392460232914605
:10042000043290460832002494461B062FE05746BB
:10043000996158619861174233D14F46996158616B
:100440009861174233D147469961586198611742C4
:1004500033D16746996158619861174233D120279B
:10046000996158619861174233D140279961586169
:100470009861174233D19961D2095861986133D19B
:100480000134E2B2996158619861964233D95F466E
:100490002A5D1742CBD0574659615861986117427F
:1004A000CBD04F465961586198611742CBD047462F
:1004B0005961586198611742CBD0674659615861BC
:1004C00098611742CBD02027596158619861174233
:1004D000CBD040275961586198611742CBD0596100
:1004E000D20958619861CBD00134E2B259615861A8
:1004F00098619642CBD801230199AD198A78013DC4
:100500009340D0221206536193612B784B7103B054
:10051000F0BCBB46B246A946A046F0BDF0B5C64603
:10052000060000B500283ED0204B214D214C2B80E9
:1005300000232370204B214F98462A00022138685F
:10054000FFF754FF43462278186852000221B21880
:10055000FFF74CFF6B7801205B086B7002F006FD23
:1005600023780133DBB22370072BE6D980232B805D
:10057000783B23702A0002213868FFF737FF434693
:100580002278186852000221B218FFF72FFF2B784B
:1005900001205B082B7002F0E9FC23780133DBB209
:1005A00023700F2BE6D980BCB846F0BD0080FFFF5A
:1005B000101200203D130020CC110020D01100208B
:1005C0007F23F0B557464E464546DE469A46FF3BEA
:1005D0009946421CC033E0B598469C462027202609
:1005E0001025FF3268E04C460B782343DBB20B70DA
:1005F0004478002C6AD064462343DBB20B708478C5
:10060000002C69D03343DBB20B70C478002C68D067
:1006100010242343DBB20B700479002C66D008242D
:1006200023430B704479002C66D0042423430B70C1
:100630008479002C66D0022423430B70C479002CEB
:1006400066D10134A3430B70037A002B66D04C466D
:100650004B782343DBB24B70447A002C65D0644660
:100660002343DBB24B70847A002C64D03343DBB27B
:100670004B70C47A002C63D010242343DBB24B7040
:10068000047B002C61D0082423434B70447B002C56
:1006900061D0042423434B70847B002C61D002245E
:1006A00023434B70C47B002C61D10134A343103031
:1006B0004B700231824261D00378002B93D15446B3
:1006C0000B7823400B704478002C94D14446A3430C
:1006D0000B708478002C95D1BB430B70C478002C30
:1006E00096D1AB430B700479002C98D10824A34316
:1006F0000B704479002C98D10424A3430B708479A7
:10070000002C98D10224A3430B70C479002C98D0FC
:10071000012423430B70037A002B98D154464B7865
:1007200023404B70447A002C99D14446A3434B702C
:10073000847A002C9AD1BB434B70C47A002C9BD195
:10074000AB434B70047B002C9DD10824A3434B701A
:10075000447B002C9DD10424A3434B70847B002C4C
:100760009DD10224A3434B70C47B002C9DD0012457
:10077000103023434B70023182429DD10822054B39
:100780001A70054B08321A70F0BCBB46B246A94637
:10079000A046F0BD3F1300203C1300201749F8B5D8
:1007A0000B68002B29D1164B164C1F78164B1E7860
:1007B000164B32041D78164B023618783B069B18F0
:1007C0001B182A029B18134A04305343124AE07044
:1007D000944663440B6080208021C00249010137A8
:1007E000033527706670A57004F06EFD80228020AE
:1007F00021005200C00204F04FFDF8BD1412002089
:10080000000004101812002001000410020004105F
:10081000030004100D6619005FF36E3C084B10B521
:100820001A6804000748091B5043074A01319446DF
:100830006044186003F0F4F9601880B210BDC0463F
:10084000141200200D6619005FF36E3CF0B51F0016
:10085000134B0400160013481A6883B05043124A21
:100860000D0094466044186003F092FA2200009054
:1008700001912B003000390003F0FBF902000B005E
:100880000A480B4903F007FA02000B00009801998F
:1008900003F001FA22002B0003F0F4F903B0F0BDDD
:1008A000141200200D6619005FF36E3C0000E0FF9B
:1008B000FFFFEF4130B50F4940690B78DA0717D4D5
:1008C0000D4C0E4A247864B2A400A4580133DBB264
:1008D0001A00FF3A551EAA41524213400B70084BB2
:1008E00004601A78002A01D000221A70012030BD5D
:1008F000044CEBE73513002038130020C002002021
:1009000031130020585300100C4930B50C78002CDE
:100910000ED100280DD002250948037801335BB2BF
:10092000DA0F9D42624152421340037001230B7063
:1009300030BD0122034B1A70FAE7C0463113002084
:100940003813002032130020002370B5274A284CAA
:10095000284D294E13702B702370284B8CB0012228
:10096000082100200593330001F09CFB3300012295
:100970000821012001F096FB01220021002001F056
:1009800055FB01220021012001F050FB02F036F955
:1009900005AB01931A4B06AE00931A4A0023029648
:1009A00002F030F92378002B05D10598FFF7B6FD4A
:1009B0002378002BF9D0300002F040FA0022082101
:1009C000002001F045FB00220821012001F040FB3E
:1009D00000220021002001F029FB0022002101203B
:1009E00001F024FB28780CB070BDC0463113002004
:1009F000321300203813002009090010585300104A
:100A0000B508001020A107000E4A41691378002B99
:100A100008D10D4B086818600C4B0B600123137054
:100A200001200CE0D8070BD5074800680860591C66
:100A30001170082BF4D901220020054B1A70704761
:100A40000248F3E734130020640F002078530010AD
:100A50003B130020022815D00AD800281AD084237E
:100A6000104A5B00D15C032901D00121D1547047A9
:100A70000328FCD184230B4A5B00D15C0129F6D00A
:100A8000D054F4E78423074A5B00D15C0029EED000
:100A9000D054ECE78423034A5B00D15C0229E6D002
:100AA000D054E4E7C0100020F0B5D6464F46464685
:100AB0008022C0B5784D84235200A95C02225B00DD
:100AC000EB5CFF328246AA5C022B00D197E0032B3D
:100AD00000D190E0012B00D189E017004C1EE4B258
:100AE0002301EB18DB5DA4463E00002B43D0032B13
:100AF00000D188E00122694B08211A7000200022F1
:100B000001F0A6FA00220821012001F0A1FA00223A
:100B10000821022001F09CFA00220821032001F0A4
:100B200097FA00220021002001F080FA0022002123
:100B3000012001F07BFA00220021022001F076FA68
:100B400003200022002101F071FA82235B00E858A3
:100B500000280AD04468002C05D003F099FD20003D
:100B60006468002CF9D103F093FD0020E0BCBA4684
:100B7000B146A846F0BD0533FF33EB58002B00D13A
:100B800082E0012002268046681CB446FF3010E057
:100B9000604624012C19E0555E6818785C78002EB8
:100BA00011D0170022000C000100180033000026AD
:100BB000B0460470477040460028E9D15E68187856
:100BC0005C78002EEDD18C4616005A701970634681
:100BD00002221B01EB189A55002300012818035527
:100BE000534628005969FFF7EBFC0120BEE7571C6C
:100BF0000C00FFB274E7571E0C00FFB270E74C1CEC
:100C00001700E4B26CE76E1CFF36B1467668002E22
:100C1000FBD1082003F02AFD4B46586046601B8834
:100C200001210380822302205B00EA586B1C80466E
:100C3000FF33002A0CD114E0434624012C19E3555C
:100C4000516800290DD0130037000A00040000216C
:100C500018785E781C705F700029EDD1516800290A
:100C6000F1D10E210120FFF7D9FD04000E21012052
:100C7000FFF7D4FDE4B22401C0B22C19225C002A93
:100C8000EFD103322254ABE76B1C140008003A008A
:100C90006146FF3399E7C046C01000203B13002097
:100CA0000022F8B54E4B4F4C1A704F4B00211A7072
:100CB0000222FF3294462300012000224B4F13E012
:100CC0000F291FD000265A709A70DA701A715A7163
:100CD0009A71DA711A725A729A72DA721A735A73B4
:100CE00001311033AE73E8731D0018700029E7D18D
:100CF000614601266180A181607001216760A76063
:100D00001033EFE7F1230222E054FF320133E252C5
:100D1000364B0D3AA3500432A3500432A3500E2197
:100D20000120FFF77BFD05000E210120FFF776FD76
:100D3000EDB22D01C0B265192A5C002AEFD1032162
:100D400082232954022680255B00E2506D00FF3685
:100D50000E210120FFF762FD0E2160550120FFF7F3
:100D60005DFDC0B2A055635D1B01E3181A5C002A4B
:100D7000EED102321A5403210020FFF74FFD8423E5
:100D80005B00E0541A4C012223000821002001F0EE
:100D900089F9230001220821012001F083F92300B1
:100DA00001220821022001F07DF9230001220821FF
:100DB000032001F077F901220021002001F036F92B
:100DC00001220021012001F031F90122002102203D
:100DD00001F02CF901220021032001F027F9F8BDD0
:100DE0003B130020C010002034130020010101013A
:100DF000550A001070B506009AB012AC059401F0C7
:100E0000FDFEFA22013633069B1B9B019B195B00FA
:100E100005009819400000239200C11703F0C4FB9D
:100E20000B0006A9029114490200019428000091C8
:100E300001F0E8FE114C2378002B05D10598FFF74F
:100E40006DFB2378002BF9D001F0D8FE0CAB029398
:100E500005AB01930A4B0B4A009301235B4201F05F
:100E6000D1FE002323700598FFF758FB2378002B51
:100E7000F9D01AB070BDC046A90A00103B1300207B
:100E8000090A0010E05EF8FF0B480C490378097866
:100E90000B4A890001338A58DBB2037011799942F9
:100EA00006D95B0112680749D31801200B6070470F
:100EB00000230370F6E7C0463913002037130020E3
:100EC000B85300107010002070B584B0032802D110
:100ED0000122194B1A70194C23780133DBB22370AD
:100EE000022B23D8164E9B00F3581A68154D164B4B
:100EF00028001A6001F0A2FF23789B00F358DE88D7
:100F000001F07CFEFA220400002330009200002150
:100F100003F04AFB0B00002101910C4902000295ED
:100F20002000009101F06EFE04B070BD0023084A5D
:100F3000034E2370DAE7C0463A130020371300202F
:100F4000B8530010000D002070100020890E001012
:100F50001C58001010B51B4C012223000821002052
:100F600001F0A0F8230001220821012001F09AF8E5
:100F7000230001220821022001F094F8230001221D
:100F80000821032001F08EF801220021002001F049
:100F90004DF801220021012001F048F80122002132
:100FA000022001F043F801220021032001F03EF865
:100FB0000022054B05491A70054B1960054B1A7044
:100FC00010BDC046C90E0010371300201C58001079
:100FD000701000203A13002070B52A4A2A4B12786C
:100FE00084B09200D358DD8801F008FEFA22040094
:100FF000002392002800002103F0D6FA0B00002104
:10100000224E01912249020002962000009101F037
:10101000F9FD204C2378002B06D11F4D2868FFF7DF
:101020007DFA2378002BF9D0300001F007FF002271
:101030000821002001F00CF800220821012001F015
:1010400007F800220821022001F002F800220821FE
:10105000032000F0FDFF00220021002000F0E6FF49
:1010600000220021012000F0E1FF002200210220E7
:1010700000F0DCFF00220021032000F0D7FF04B0C5
:1010800070BDC04637130020B8530010000D00207B
:10109000890E00103A1300207010002001224369CD
:1010A0001A7070470022436900201A707047C046CA
:1010B000044B03381A68434258410123404203431A
:1010C00013707047F41100204223F0B5C646FF3379
:1010D000C25600B5002A53D0013BC35C012B52D04D
:1010E0000B2B01D1012A4BD09B18DBB2511C59D1DB
:1010F000A02464000021052703250355541C4FD06C
:10110000ECB20025A046C4186618AC46F036013291
:1011100001D1032294466246032532703A1F561EBF
:10112000B241CEB20919F1310D70B11CC9B26418C7
:10113000F11CF034C9B225705C1804190332F03484
:10114000914233D0311D2570CCB249B28F4213DDAC
:10115000191994422FD144464118F0310C700536CC
:1011600076B2B74208DD0433042A01D00322904648
:101170004246C318F0331A7042230022FF33C25490
:1011800080BCB846F0BD531CFAD001210427531C83
:10119000DBB24942A024640003250355541CAFD19F
:1011A0000025ADE7012104274942F3E741462170BC
:1011B000052FE1D1191D03244118F0310C70CEE741
:1011C000F0B5C6460C0000B52268636888B005001B
:1011D00041680068009201930490059102F052FD6D
:1011E000A368E46806001A00029303940F00A8683D
:1011F000E96823000690079102F044FD00220400F4
:101200000D0000233000390002F0BCFD00281ED084
:10121000002230003900434B02F09EFD002816D01A
:10122000002200232000290002F0ACFD002855D048
:101230003C4B00222000290002F08EFD002398463E
:1012400000284BD0404608B080BCB846F0BD002214
:1012500000232000290002F095FD002820D0002264
:10126000200029002F4B02F077FD002818D02D4BCD
:1012700000223000390002F07DFD0223984600284C
:10128000E0D102339846002300223000390002F0FA
:1012900069FD431E98414346404203409846D1E7CA
:1012A000009C019D6B002000029D039E74002A009B
:1012B0005908630802F056FD00221B4B002824D079
:1012C0000698079902F05EFD431E984101234042B3
:1012D0009843023B80469C46E044B3E7002300224B
:1012E0002000290002F03EFD012398460028A9D1E4
:1012F0000C4B00222000290002F03CFD03239846FD
:1013000000289FD100239846BDE70498059902F074
:1013100039FD431E98414300984604235B429C4696
:10132000E0448FE700002E4000002040F0B5DE468C
:10133000454657464E46E0B5CB4B8046187809786F
:10134000421C8DB01A7002F06BFCC9B2002900D1AA
:10135000E9E094229023520042445B0016685768EB
:10136000434430003900934699465C681B680093FB
:10137000019402F0A5FD02F027FD041E0FD00F28F6
:101380000DD00098019902F09BFD02F01DFD002890
:1013900005D00F2803D0002324014444235498236C
:1013A0005B004344190048469A46FFF709FF9C2317
:1013B00004305B004344C0B203931C685D68082896
:1013C00051D8AA4B80001B589F465346009801995C
:1013D0001A685B680492059302F054FC049A059B1A
:1013E00002F050FC00220690079100980199A04B52
:1013F00002F0C8FC002800D16DE30698079900228E
:101400009C4B02F036FC02000B000020994902F0D0
:1014100030FC009001912B0022003000390002F0D6
:1014200031FC80231B062200C9182B0002F021FC8E
:101430000F00802109066B181D00039B49461C60A4
:101440005D6006005B461E605F60009A019B0A605B
:101450004B600499059A1300802212069446504668
:101460006344016043606B0059082000824A834B4B
:1014700002F072FC00282ED0002200232000290058
:1014800002F080FC00227E4B002800D1F7E2200011
:10149000290002F0F7FB039B0200186059600B0063
:1014A00002F017FC02000B000020764902F0E1FB7D
:1014B0000D0051460400086849680022002302F02C
:1014C00061FC002800D1CFE22000290002F0A0FC3E
:1014D0005346186059603000390002F0F1FC4B4669
:1014E00004000D001868596802F0EAFC06000F00BD
:1014F0002000290002F068FC04003900300002F0EE
:1015000063FC02232401444423544346591C4046AF
:10151000FF31FFF755F800200DB0F0BCBB46B246D6
:10152000A946A046F0BD4046FFF7CEFD11E72200D8
:101530002B003000390002F0A5FB00224C4B0600C6
:101540000F000098019902F01DFC00224E4B00286C
:1015500000D181E23000390002F00CFC002800D0FC
:1015600080E20098019953461A685B6802F08AFB92
:10157000A02342465B00D35C060018000F000093D6
:1015800002F00AFC02000B003000390002F0F2FB0E
:10159000002800D166E20098033002F0FDFB020053
:1015A0000B003000390002F0DDFB002800D159E2C9
:1015B0004B46314A1E605F602F48304B3349FFF77E
:1015C00045F953461A685B6802F05CFB5E46039B74
:1015D000009001911A685B683068716802F052FBF4
:1015E0000022244B02F045FB02000B0000202149A1
:1015F00002F03FFB06000F000098019902000B006B
:1016000002F067FB02000B0000201E4902F031FBD4
:1016100002F0FEFB02000400802000060B000D1803
:10162000039930000C604D60390002F022FB5B46EC
:1016300006000F00009801991E605F604B461A6813
:101640005B6802F01FFB00220A4B02F012FB0B004A
:1016500002000849002002F00CFB4B46186059605C
:101660000099019AF7E6C046361300203C58001056
:101670000000204000002E409A9999999999D93FED
:101680000000E03F0000F03F000030409999D9BFD2
:10169000534619685A681300049105920A0000988D
:1016A000019902F0EFFA0022E44B02F0E2FA0200A4
:1016B0000B000020E14902F0DCFA220006900791BD
:1016C0002B003000390002F0DDFA22002B000A90D6
:1016D0000B9102F0D7FA049B0890099105990093A9
:1016E00080238C461B06634401930022300039009E
:1016F000D34B02F047FB002800D1E2E10A9A0B9B92
:1017000059460A604B60069A079B49460A604B603F
:10171000009A019B51460A604B6008980999002283
:10172000C84B02F027FB002800D09BE1049A059BE0
:101730000698079902F09DFAA023424606000F0082
:101740005B00D35C1800009302F026FB32003B00E4
:1017500002F008FB002800D184E10098033061E02A
:1017600022002B003000390002F08CFA22002B00FE
:101770000A900B9102F086FA534608900991196875
:101780005A681300069107920A000098019902F026
:1017900079FA8022120694460B0063440193069B5B
:1017A000009004931300079A300094466344059315
:1017B00000223900A24B02F0E5FA002800D163E1D3
:1017C0000A9E0B9F5B4651461E605F60009E019F14
:1017D0004B461E605F60049A059B0A604B60089848
:1017E00009990022974B02F0C5FA002800D039E190
:1017F000069A079B3000390002F03BFAA0234246CC
:1018000006000F005B00D35C1800009302F0C4FADE
:1018100032003B0002F0A6FA002800D122E1009B32
:101820000333180002F0B8FA32003B0002F0A2FACB
:10183000002800D116E1089809994B4600221E6045
:101840005F607E4B02F015FA0B0002007B4900201E
:1018500002F00FFA5B4606000F001E605F602CE08E
:101860005146009A019B0868496802F00BFA4B4602
:101870002200186059602B003000390002F002FA93
:101880005B4606000F001E605F60ECE55146009A63
:10189000019B0868496802F0F5F94B462200186080
:1018A00059602B003000390002F0ECF9802306006B
:1018B0005A461B06CF181660576080212200090681
:1018C0006B181D001400039B1C605D60CBE52200BB
:1018D0002B003000390002F0D5F95B4606000F00FE
:1018E000009801991E605F6053461A685B68049215
:1018F000059302F0C7F90022504B02F0BAF902003A
:101900000B0000204D4902F0B4F94B4618605960B5
:101910000499059A9FE522002B003000390002F05F
:10192000B1F90022474B02F025FA002800D099E0D7
:101930000098019953461A685B6802F0A3F9A02346
:1019400042465B00D35C060018000F00009302F0D3
:1019500023FA02000B003000390002F00BFA0028D5
:1019600000D17FE00098033002F016FA02000B006D
:101970003000390002F0F6F9002873D04B46324AA5
:101980001E605F603048314B3149FEF75FFF5346C0
:101990001A685B6802F076F9564602000B00009068
:1019A000019159463260736008684968039B1A6860
:1019B0005B6802F067F90022204B02F05AF902003E
:1019C0000B0000201D4902F054F906000F00594693
:1019D0000E604F600098019902000B0002F079F947
:1019E00002000B0000201B4902F043F902F010FA3C
:1019F00080220400039B12068D181C605D6032E596
:101A000022002B003000390002F03CF95B46060052
:101A10000F00009801991E605F6053461A685B686A
:101A20000492059302F02EF980234A461B06CB1838
:101A3000106053600499059A0DE5C04600002E40E1
:101A400000002040000030409A9999999999D93F17
:101A50009999D9BF0000F03F3000390002F08AF9AF
:101A6000002841D0012057E52000290002F0D0F9DC
:101A7000802352461B06CB18106053602BE52000D4
:101A8000290002F0F6F806E55146049A059B0A6023
:101A90004B60069A079B0098019902F0EAF84B46C2
:101AA000186059600899099A13008022120694461A
:101AB00063440E001F005B46220061461E605F60AB
:101AC000FEE65146009A019B0A604B60049A059B12
:101AD00006980799E1E7802212069446069B009338
:101AE000079B6344019396E45346009801991A6852
:101AF0005B6802F0C7F8A02342465B00D35C060097
:101B000018000F00009302F047F902000B003000AC
:101B1000390002F02FF90028A4D00098033002F019
:101B20003BF902000B003000390002F01BF90028DD
:101B300098D04B46284A1E605F602748274B2849AB
:101B4000FEF784FE53461A685B6802F09BF85E4617
:101B5000039B009001911A685B683068716802F01D
:101B600091F800221F4B02F084F802000B000020C5
:101B70001C4902F07EF806000F000098019902004F
:101B80000B0002F0A6F802000B000020164902F03C
:101B900070F802F03DF902000400802000060B00FE
:101BA0000D18039930000C604D60390002F061F8A7
:101BB0005A4606000F0000980199166057604A4681
:101BC0005368126802F05EF880234A461B06CB1861
:101BD0001060536044E5C0469A9999999999D93F04
:101BE0009999D9BF00002E400000F03FF0B5C646DD
:101BF00000B50500E4B07648FEF790FC8A21754AEE
:101C0000FF3169441160A0220621002012AE52006B
:101C1000B152714A7149129213921492159216247C
:101C2000802200235A905B915C905D9101210220FB
:101C300052046C44237016911793189319921A91B9
:101C40001B931C931D921E911F932093219222910E
:101C500023932493259226912793289329922A91BE
:101C60002B932C932F9330933393379338933B9349
:101C70003C933F93409343934493479348934B93B0
:101C80004C93574B2D922E91319232913490359244
:101C9000369139923A913D923E91419242914592CC
:101CA000469149924A914D924F934E4B4E9150938B
:101CB00051924D4B4D4A4D484D49FEF7C7FD02002C
:101CC0000B005E905F9102F004F802000B00002010
:101CD000484901F0CEFF02F09BF880231B06CB1889
:101CE000609052A930006193FEF76AFC424F0122D6
:101CF0003B000821012000F0D5F93B00012208211A
:101D0000032000F0CFF901220021012000F08EF91C
:101D100001220021032000F089F96F8800F06EFF96
:101D2000FA227F42804600233800F917920002F021
:101D30003BFC0B00314906AF02000297404601947C
:101D4000009100F05FFF03E0207052A8FEF7E6FB71
:101D50002378002BF9D029003000FFF7E7FA00289C
:101D6000F2D0380001F06AF800220821012000F0CA
:101D70006FF900220821032000F06AF900220021F7
:101D8000012000F053F9172400220021032000F065
:101D90004DF901236C44237000F030FF184B0CAE5A
:101DA0000093184A00230296019400F02BFF237839
:101DB000002B06D0144D2800FEF7B0FB2378002B33
:101DC000F9D1300001F03AF864B080BCB846F0BDFB
:101DD00078530010F411002001010101000020409F
:101DE00000000303030300009999D93F9A99999938
:101DF0009999D9BF0000F03FB11000109D1000105C
:101E0000A510001000093D0098530010D0231B06B8
:101E10001B68824A99005258F0B5574692465A1E9E
:101E200093413022DE464E4645465B421A4013003F
:101E30007B4AE0B5944683B063440193794B88466E
:101E400000260F279B46F2081300019908339B00D8
:101E50005C5835000836002C22D0012399465346A1
:101E6000002B26D039002140274213D05B46424642
:101E70009A584B46AB401A420CD1072208002A4020
:101E8000920090400200EB0867483C339B001A50D8
:101E90002800D04724090135002C01D0B542E1D3F8
:101EA000202ED0D103B0F0BCBB46B246A946A04616
:101EB000F0BD39002140274209D00133AB409C4698
:101EC00043465848C0586346184200D17EE0230973
:101ED000E6D00F22110019401A420FD06B1C0E3AA7
:101EE0009A40944642464F4880586246104205D177
:101EF000DB084D4A3C3309019B009950230ACFD09F
:101F00000F22110019401A420FD0AB1C0E3A9A4012
:101F100094464246434880586246104205D1DB0849
:101F2000414A3C3309029B009950230BB8D00F2241
:101F3000110019401A4238D1230CB1D00F221100E0
:101F400019401A4247D1230DAAD00F22110019407F
:101F50001A4251D1230EA3D00F22110019401A4268
:101F60000FD0AB1D0E3A9A40944642462D488058F9
:101F70006246104205D1DB082B4A3C3309069B0020
:101F80009950240F0735002C00D189E701234146E1
:101F9000AB40244A52581A4200D081E7ED08224A49
:101FA0003C352407AD00AC507AE7EB1C0E3A9A4062
:101FB000944642461B48805862461042BCD1DB081A
:101FC000194A3C3309039B009950B5E7164B3C3244
:101FD0009200D1507BE72B1D0E3A9A409446424620
:101FE0001048805862461042ADD1DB080E4A3C339F
:101FF00009049B009950A6E76B1D0E3A9A4094463F
:1020000042460848805862461042A3D1DB08064A7F
:102010003C3309059B0099509CE7C046681000209E
:10202000004101400812002000400140074B8000A1
:102030009C4660440368C90092000A435A400C233E
:102040001A4080235B0103431A60704704C00140BB
:10205000D0231B061B6830B50500584243412F2092
:102060005B4283430D48EC088446072028408000EB
:10207000814020000A4D3C3063448000A40041515F
:102080001B19002A04D0802292011343196030BD2D
:10209000C022920113431960F9E7C0463041014064
:1020A00000400140F8B51D00D0231B061C68060047
:1020B000604244412F20644284432748F708844605
:1020C00007203040800081403800244E3C3064447A
:1020D0008000BF008151E419002A11D080229201B2
:1020E000224311601C681E4EA400A359002B15D07A
:1020F000002D25D0A55101210D2000F097F8F8BD45
:10210000C0229201224311601C68154EA400A359FD
:10211000002B0CD0002D18D0A551F0E7002DEAD0EF
:1021200000220D200F49A55100F0C4F8E3E7002D6F
:10213000E5D000220D200B49A55100F0BBF8DEE7E9
:102140000D20084900F0A6F9D4E70D20054900F05C
:10215000A1F9A551D3E7C0463041014000400140FC
:10216000681000200D1E00100123D02283401206AB
:1021700093629361094A40219446830063441A683C
:10218000C0004A408031114080225201134319603F
:10219000034B9C46052360444360704704C00140E4
:1021A0000040014070B5EFF3108C72B60D4D2B68F6
:1021B000002BFCD0BFF35F8F0724CB08C618C05C90
:1021C00001230C40A3401C000440034207D11843E4
:1021D0003070BFF35F8F2C608CF3108870BD1000DF
:1021E00001F0DCFA2C0100D0024B18688007C00F08
:1021F0007047C04600C006400021044B044ABFF3AC
:102200005F8F02C39342FAD17047C046000100D0ED
:10221000800100D0044A1078431CDBB2172B00D990
:10222000102313707047C046D00200200123834062
:10223000002904D0034A1360034A13607047034A1D
:102240001360FBE780E200E000E100E080E100E0F5
:10225000024B10309B688000C058704700ED00E0D2
:1022600070B50D00EFF3108672B60F4A1368002B9D
:10227000FCD0BFF35F8F0D4B10309B6884001B595F
:102280000B4A934203D09D4201D001F09FFA074BC5
:102290009B681D51BFF35F8FBFF35F8F0022024B1E
:1022A0001A6086F3108870BD240100D000ED00E0B4
:1022B000CD010010F0B54E464546DE465746E0B526
:1022C00083B0060000919046EFF3108B72B6664A19
:1022D0001368002BFCD0BFF35F8F0025634B5D5765
:1022E0009A46002D00DA7AE052466B00604C5F1986
:1022F000BF000193E31999469B79103613705D4B2B
:10230000B6009B6899590B1B2F2B33D95A4B994216
:1023100000D07DE0019B02379C46584B6544AD00E0
:102320006353574BE719043BDB1B564A1B055B0DF8
:10233000651913436B80544B0121AB80FF23AB71B4
:102340004346EB71009BAB604B460B431900494B76
:102350009B689951BFF35F8FBFF35F8F0022424BA1
:102360001A608BF3108803B0F0BCBB46B246A94696
:10237000A046F0BD01200A008243D37943454AD9E3
:10238000BC464746884607E05800C0188000201821
:10239000C179B94229D902000623D356002BF3DABA
:1023A0009A464146131DB846BD279C463F02484603
:1023B00063460438C01A0005324B400D1843019B98
:1023C000908095715A1953469200A418A371434600
:1023D0002E4AE371009B2260A780A360B7E701F05B
:1023E000F5F9002553465D577EE79A464146131D91
:1023F000B84667469C469088043740050015E719A3
:102400006044C01BE0270005400D3F020743CEE7B4
:1024100001F0DCF97EE713001D491B1B5B415943AA
:10242000090D164BBD1CE353154B6519043B5B1B93
:102430001B05144D5B0D2B43AC464D466B8065462A
:102440000437131FE719DB1B1B055B0D1D434B46B0
:1024500099714146D97100999D80996049460B4B0D
:102460000143136073E7C046240100D03E130020EF
:10247000D402002000ED00E0CD01001000A1FFFF1C
:102480000403002000E0FFFF00BDFFFF014880477C
:10249000AAAA0000F0B5DE4657464E464546E0B5CE
:1024A0000C0083B0EFF3108A72B6604A1368002BF9
:1024B000FCD0BFF35F8F1022914681444A465C4BAB
:1024C00096009B689D595B4B98469D4205D0A5425E
:1024D00016D0594FEB1B2F2B14D9554B9B689D5190
:1024E000BFF35F8FBFF35F8F0022504B1A608AF3F8
:1024F000108803B0F0BCBB46B246A946A046F0BD6A
:102500001D00EAE7012383409B465A464B4B1B685C
:102510001A4000925A464A4B1A60BFF35F8FFDF78C
:10252000A2FE031E01901DD12A0001339A43906838
:10253000844208D171E04B005B189B00FB1898683F
:10254000A04245D01A00062151560029F3DA8442F0
:102550006AD0009B002B34D05A463A4B1A60374B56
:102560001A60BAE7814530D12A0001239A43906866
:102570008442E8D1062151561300002940DB4A006D
:10258000501880003C188046A0689860E079D871A7
:1025900006202056987100282FDBA488F81A6405BD
:1025A000241544440019E0240005400D2402204372
:1025B00098805318244A9B001078FB18987111706A
:1025C000C7E75A461E4B1A6087E701F0FFF8CBE7D2
:1025D000062159560029D2DA0199002910D1FF317C
:1025E00091711A49918018490A789A71184ADB1B2F
:1025F0005B415A43120D0A70ABE7BD200002D7E7DA
:10260000144A1549D21A083A5002400D01439980E4
:10261000124952080A43DA809BE7062151561300FB
:102620000029ACDA4546DEE71300D5E7240100D0E7
:1026300000ED00E0CD010010D402002000E100E038
:1026400080E100E080E200E03E13002000BDFFFFDB
:10265000AAAA00000E03002000F0FFFF00F8FFFF11
:10266000F8B5012504000543FDF7FDFDEFF3108CDF
:1026700072B6214A1368002BFCD0BFF35F8F1F4E48
:102680002100B7681E4A1F4B891A49414B431B0D55
:1026900059B28300F858A8421CD00623D3568B4267
:1026A0001CD01223D3568B4222D01E23D3568B42EA
:1026B00020D02A23D35603208B4210D0124B1A78F5
:1026C0001970A271BFF35F8F00220B4B1A608CF35D
:1026D0001088F8BDB2680D48D050EFE700204300E5
:1026E0001B189B00D218FF239371094B9380E5E7D9
:1026F0000120F4E70220F2E7240100D000ED00E021
:10270000D4020020AAAA00003E130020CD01001030
:1027100000BDFFFF054B064A1360064A1360536075
:102720009360D360136153619361704780808080B0
:1027300000E400E004E400E0024B9C4661448900B0
:10274000016070474000003483680B4810B5844630
:10275000614462441201090159189B185C684A6877
:102760000120944201D802D00020C0B210BD1A68E6
:102770000B689A42F9D8F7E7FFFFFF0F10B5080082
:102780000B690C009847002802D02068616810BDD2
:10279000E06000210020FAE70A4B1968EFF310808F
:1027A00072B60A68002AFCD0BFF35F8F1B68BFF3C4
:1027B0005F8F00221A6080F3108840BF0020002144
:1027C0007047C0461C130020F8B5574645464E4694
:1027D000DE46E0B598460CAB1C780DAB1B780700C5
:1027E00091469A460568002C5AD1AC7B002C3BD010
:1027F000660029683619033E89194B78AB73002BA4
:1028000000D1EB7300238B704B700B702B4BE218D5
:10281000BB6812019B184A461A6042465A600A9ADF
:102820009A600B9ADA6000238B704B700B706B7B95
:102830009B46002B27D022006B685946A868984712
:102840005B465B005B442A68033B002812D0584675
:102850009619B070D118D35C002B00D073705B4612
:102860000C706B735C450FD0F0BCBB46B246A946FA
:10287000A046F8BDD3189C709119925D002A00D033
:102880005A705B460B706C734A464346387D00F0C5
:1028900051FC051E0AD10E9B002BE5D01D70E3E70D
:1028A000660029683619033E8919AFE75346002BA5
:1028B000F1D12100386800F087FEECE7FFFFFF0F41
:1028C000F0B5DE4657464E4645460023E0B58DB08E
:1028D0000A936A4B8200D75800239B460B9000F066
:1028E000C9FB02000B007868EFF3108972B64D4601
:1028F00001680029FCD0A946BFF35F8F39684E7B81
:102900008C46002E2ED0BC685D49A2467118090184
:102910008A4451460868496804000D00A41A9D4184
:10292000002D5EDD02000B000B9800F003FC00237D
:1029300000229A46002308920993002398467B6858
:10294000BFF35F8F5A461A6089F310884346002B05
:1029500012D10028C3D10DB0F0BCBB46B246A94687
:10296000A046F0BD002300229A4600230892099356
:10297000002300209846E2E70A9B514618023043A4
:10298000C047069007917A68EFF3108572B65446F7
:102990001368002BFCD0A246BFF35F8F0699079AFD
:1029A000002A3BDB114302D03B69002B52D13B682C
:1029B000D97B002905D01A68480041185218033AFB
:1029C0005670DE73FA68013E935D013393555B46A2
:1029D0003B617B68BFF35F8F5A461A6085F31088AE
:1029E0007DE7002D01D1002C9CD10021604600F034
:1029F00053FD53465C681B680893099453469B68D3
:102A000098465346DB689A46FB689B19013B1B7846
:102A10000A931B0203433B61002090E73B69002BB4
:102A2000C5D0089B099C5B1A9441089809991A0023
:102A30002300A14219D899421BD0002104910131F1
:102A40000391514601914146380002960091FFF7EB
:102A5000BBFEBCE700F00EFB069A079B12184B4129
:102A6000994202D8E9D19042E7D901225242D317C4
:102A7000E3E708999142E0D9F7E7C046F811002052
:102A8000FFFFFF0FF8B557464E464546DE46E0B518
:102A90003E4D824689466A68EFF3108872B6136825
:102AA000002BFCD0BFF35F8F2E68B47B002C48D086
:102AB000670033683F19033FDB195A78B273002A65
:102AC00000D1F273324AA118AA680901521851467E
:102AD0001160494651602F4991600021D160997081
:102AE00059701970737B9B46002B41D0220073688C
:102AF0005946B06898475B465B005B443268033BCD
:102B000000282CD05846D719B870D118D35C002BA8
:102B100000D07B705B460C7073735C4529D0002637
:102B2000EB681B19013B19786B68BFF35F8F0022BC
:102B30001A6088F310880020002E0AD10802204372
:102B400007E06B68BFF35F8F1C6088F3108801207B
:102B50004042F0BCBB46B246A946A046F8BDD318D9
:102B60009C70D119D25D002A00D05A705B460B7060
:102B7000747352464B46287D00F0DCFA061ECED018
:102B80002100286800F020FDCAE7C0461C03002091
:102B9000FFFFFF0F9927001010B5124C6368002B40
:102BA00004D00A211048FFF7C7FD10BD23000F4ACB
:102BB0001021206800F076FB032000F04FFA03207C
:102BC00000F026FB03200A4900F06EFAFFF722FB13
:102BD000084B9C46032360442375074B80006060CC
:102BE000DC60DEE71C0300201C13002049270010D6
:102BF000C128001040000034F81100200048704740
:102C00001C030020F0B557464E46DE4645461100EF
:102C1000E0B585B006009C46109F194300D1F5E051
:102C20006146DB170193009353401C00019B4B400E
:102C30001D0000980199241A8D4163460E997B600E
:102C40000F9B3A607B61BE60396100F013FA0200AD
:102C50000B00A4185D4100940195A94200D9DFE062
:102C600000D1D9E000239846724B109703930023BC
:102C70009946109B3700464698467A68EFF3108BCA
:102C800072B61368002BFCD0BFF35F8F3D68AC7B3E
:102C9000002C00D174E063001B19033B1A0094461A
:102CA00002932B6863445A78AA73002A00D1EA730E
:102CB000614AA118BA680901521800980199106078
:102CC0005160039991604146D1604A469A705A70AA
:102CD0001A706B7B9A46002B00D180E022006B6853
:102CE0005146A868984753465B0053442A68033B03
:102CF000002800D169E0D1188C465146029810187E
:102D00008170D35C002B00D0437063461C70534627
:102D10006B733500544563D0FB687A681B19013B1F
:102D20001B78BFF35F8F494611608BF31088002D2D
:102D30000CD147461B02234301352800FB6005B038
:102D4000F0BCBB46B246A946A046F0BD434640464D
:102D50001B699847061E1FD043460CCB1000184332
:102D600064D014001D1E1ADA0098019902000B00AD
:102D7000121BAB41994222D83FD0009201937CE7CD
:102D80003E0047467368BFF35F8F1C608BF310886B
:102D9000012300255B42D0E747460023CDE700F042
:102DA00069F902000B00A4185D4100940195A94245
:102DB00005D800D061E700998A4200D85DE7012379
:102DC0005B42DC170093019457E70298D3189C707C
:102DD0001118125C002A00D05A7053460B706C73A5
:102DE000387D009A019B00F0A5F9051E00D193E7FC
:102DF0002100386800F0E8FB8EE700999142BCD9C9
:102E000001235B42DC170093019436E70023012481
:102E1000002501229C4610E700998A4200D821E74C
:102E200001235B42DC17009301941BE74746350002
:102E3000002382E77D270010FFFFFF0FF0B5C64695
:102E4000C368040000B50020002B02D180BCB84646
:102E5000F0BDA5686968EFF3108672B60A68002AAB
:102E6000FCD0BFF35F8FFF222868D9B2477B1A409E
:102E70008F420AD00768B8465700BC46474694447C
:102E80006744033FBF78002F11D0EF681B0ABA18C0
:102E9000013A1278DBB29A420ED000206A68BFF382
:102EA0005F8F0023136086F31088E360CEE72A6902
:102EB0009342F2D12F61F0E700F086FBEEE7C046C7
:102EC000F0B504000D0006267642F717C6463619FF
:102ED0006F4100B58F4213D810D000F0CBF832000C
:102EE0003B00121A8B41002B14DC002B37D0290039
:102EF000200000F0C9F880BCB846F0BD8642ECD98D
:102F00000026002700F0B6F832003B00121A8B4171
:102F1000002BEADD30003900FFF7B4FD0028E6DBC6
:102F200000239846BC460F4A0F4F7B6A9C4504D845
:102F3000B96AB142DBD29C45D9D11168EFF3108058
:102F400072B60B68002BFCD0BFF35F8F1368BFF322
:102F50005F8F4146196080F3108820BFE5E7002AA3
:102F6000C5D0D7E71C1300200040054070B506000F
:102F700000F080F8FA2204000D0000233000002148
:102F8000920001F011FB001969418D4205D802D071
:102F9000FFF796FF70BD8442FAD901204042C11765
:102FA000F6E7C046F0B5D6464F464646C0B5EFF305
:102FB00005823F23134018001038EFF3108C72B6CF
:102FC00020490A68002AFCD0BFF35F8F0122170056
:102FD00087401D4C1600A24667631C4C2578A0460E
:102FE0002C00C4402640224215D05246566A184A48
:102FF0008400A258964218D34246164BBD43E3586C
:103000001570BFF35F8F00220A608CF31088002BCD
:1030100006D0984704E0BFF35F8F0E608CF31088F2
:10302000E0BCBA46B146A846F0BD0B4A9B009046AC
:1030300043441A681A60BFF35F8F00230B608CF360
:103040001088EDE7280100D0004005404013002023
:1030500020130020540F0020D03F054010B5034B33
:1030600001001800024AFFF79DF810BD331300203D
:1030700060580010034B596A0A00986A596A8A42DC
:10308000FAD1704700400540064A536A9942FCD87D
:1030900007D1044B02E05A6A914202D19A6A8242F5
:1030A000F9D370470040054070B504000D00EFF300
:1030B000108672B61A4A1368002BFCD0BFF35F8FDC
:1030C000002D1BD02000FFF7C3F8164981420AD01B
:1030D0002000FFF7C5F801212000FFF7A7F8012322
:1030E000A340114A1360114BA400E550BFF35F8F5A
:1030F00000220B4B1A6086F3108870BD0121A1409D
:103100000A4BA200D5500A4B20001A788A43054981
:103110001A70FFF7BFF900212000FFF787F8E5E7F5
:10312000280100D0A52F001038600540540F002062
:1031300040130020F0B54F46D6464646C0B50700BE
:103140002E4C616A0D00A66A616AA942FAD18B42CF
:1031500008D805D00120E0BCBA46B146A846F0BD6B
:10316000B242F7D9EFF3108A72B6254801680029F8
:10317000FCD0BFF35F8F0125BD4022491F4C88461C
:10318000097889462943C9B28C4641466046087091
:10319000391D890065630A511B49B8004350216AF3
:1031A0000020294219D0616A0800A66A616A81423A
:1031B000FAD18B4219D801D1B24216D8CC450BD0E6
:1031C0000E4B1F221D625D6301233A4093400F4A5C
:1031D000136043464A461A700120BFF35F8F0022F6
:1031E000074B1A608AF31088B5E70020BFF35F8FA2
:1031F0000022034B1A608AF31088ACE700400540B8
:10320000280100D0401300202013002080E200E0BD
:10321000EFF3108C72B60A490B68002BFCD0BFF399
:103220005F8F01238340074A0748136202789A435D
:103230000270BFF35F8F00230B608CF31088704720
:10324000280100D0004005404013002070B5060062
:103250000D00140000291DD0002A12D07368806868
:10326000984762006B0012195B193168033A033BFF
:10327000002808D08A189570C818CB5C002B0BD199
:103280000470280070BDCB189C7088188A5C002AD6
:1032900005D105702000F5E753700470F1E75A700E
:1032A0000570F7E710B583600023CCB24373013398
:1032B000426004738373C4730068421C012C05D9F7
:1032C0000133DBB2137003329C42F9D1FF230B4070
:1032D0005A00D318C01800230338437010BDC046ED
:1032E00070B505000C1E07D0630001681B19033B75
:1032F000CB185A78002A01D1200070BD50008018E8
:103300000338091800204E784870210058702800B2
:10331000FFF79CFF310004002800FFF7E1FF0600E3
:10332000002C20D00028E7D0320021006B68A8686C
:1033300098477200630092191B192968033A033BEE
:10334000002808D08A189470C818CB5C002B00D0D5
:1033500053700670D0E7CB189E7088188A5C002ADC
:1033600000D05A7004703400C6E7C046F8B557461E
:103370004E464546DE464C00E0B56418170002682C
:10338000033C0500105D13190E009C46002852D026
:10339000430098461B18033BD31859788A460029E6
:1033A00019D1002F0CD0EC7B002C50D063001B19DE
:1033B000D318033B5E70EE73434619180339531854
:1033C00000229A70002362465370F0BCBB46B2469E
:1033D000A946A046F8BD4900514403395218517816
:1033E00088460021517089465970524601002800D4
:1033F000FFF72CFF43468246002B07D05B0029686D
:103400004344033BCB185A78002A2CD151464246FC
:103410002800FFF71BFF0100002F1AD0A4462A68DE
:10342000EF7B9444002F04D07B00DB19D318033BBF
:103430005E70EE7310E0002FC4D0E97B002910D03D
:103440004B005B18D318033B5E70EE73BAE7EE7364
:10345000B6E7A4462A6894440029B3D04B009846A6
:10346000AAE7EE73AEE750008018033809184878D1
:10347000834648464870587041462800FFF7E6FEEC
:10348000594680462800FFF72BFF414602002800DE
:10349000FFF7DCFE8046B9E7F8B557464E4645468D
:1034A000DE46E0B5467B02687500AD19033D0F00AE
:1034B000515D531904009C46002953D04B00984697
:1034C0005B18033BD3185878824600281BD1002F85
:1034D0000CD0E57B002D51D06B005B19D318033B5A
:1034E0005E70E673434658180338131800229A702A
:1034F00000236246300053706173F0BCBB46B24695
:10350000A946A046F8BD4000504403381218507830
:103510008046002050708146587052462000FFF7C8
:1035200095FE43468246002B07D05B00216843444A
:10353000033BCB185A78002A2CD151464246200032
:10354000FFF784FE0100002F1AD0AC462268E77B0B
:103550009444002F04D07B00DB19D318033B5E702A
:10356000E67310E0002FC3D0C07B002810D04300CA
:103570001B18D318033B5E70E673B9E7E673B5E733
:10358000AC46226894440028B2D043009846A9E78C
:10359000E673ADE750008018033809184878834671
:1035A00048464870587041462000FFF74FFE594684
:1035B00080462000FFF794FE414602002000FFF7FE
:1035C00045FE8046B9E7C04670B5050000292CD0FD
:1035D000437B8B422ED04C0000686418033C0419D6
:1035E000A278002A21D053009B18033BC25CC61866
:1035F0008A4202D11BE0002A08D053009B18033BEB
:10360000C3185A788A42F6D162785A700023012290
:103610002800A3706370FFF7A9FE697B02002800F1
:10362000FFF714FE6873012000E0002070BD63788E
:103630003370EBE701221900FFF798FEF2E7C0466E
:1036400010B50400FEF7E6FD01002000FFF774F856
:10365000FF232371BFF35F8F10BDC04610B5040078
:10366000FEF7D8FD01002000FFF766F8FF23A380D6
:10367000BFF35F8F10BDC0462B4B2C4A70B51A604C
:103680002B4A2C4B2C491A6014008B689C43FBD1AD
:103690002A4D2B4EB54208D2013E761BB60808CD06
:1036A000984723000134B342F9D100F095F8254A38
:1036B000204B1A60204A9368DB43DB01DD09002BB5
:1036C000F9D14022204B214E214C9A675A671A6744
:1036D000DA66B44208D2236820000834002B1FD0D9
:1036E000FFF7BCFFB442F6D31A4C1B4EC022B168A0
:1036F000200000F0D9FFB460FEF77EFDFFF70AF866
:10370000FFF74AFA154C164EB44208D2013E361B5A
:10371000B60808CC98472B0001359E42F9D170BD00
:10372000FFF78EFFD5E7C04600E00040BFCDFBFEAF
:10373000FE7F3C0000F0004000C00040BC0B0020B9
:10374000CC0B0020FFFFFF0100F00140BC0B00206C
:10375000B40B00200000002000ED00E0CC0B0020A6
:10376000D40B0020094A03001068002805D008493E
:10377000C3188B4207D81360704706480449C31822
:1037800010608B42F7D901204042F5E7D4110020A8
:10379000000004204413002000BEFDE70FB400B574
:1037A000084883B001F022F8049B002B07D005A93C
:1037B0001800019100F0E2F9034801F017F800BE8B
:1037C000FDE7C046845800109458001010B5014819
:1037D000FFF7E4FF9858001010B50C2082B000F0FD
:1037E000A9F9FEF701FD002810D0864B86488649CE
:1037F000864A186059609860D9601861596198616B
:10380000D961186259625A6202B010BD804CA0673B
:1038100000F098F901227F4B1A60636C012BFCD1F8
:1038200003227D4B1A607A4A936B012BFCD1013342
:1038300001217A4A7A480093043300F027F90523DE
:10384000784A00930121784800F020F9774B5A68B4
:10385000FF2A02D8802252005A6080226E4B694CA7
:1038600012011A602169002905D0606900F0D8F9B9
:1038700001300138FDD1E0226C4B6D4819680A40D7
:10388000026002221968514001320A40042102609C
:103890009A681142FCD08021664A09011160802299
:1038A00052005A60644B2361644B5968FF2900D869
:1038B0005A6003220121574B1A60604A93681942EB
:1038C000FCD0E023106803405D48036012680323C6
:1038D0004A4002211340594A036093681942FCD0C0
:1038E0008021584B090119608021574B49005160D4
:1038F0006361564B5A68FF2A00D859608022544BA6
:1039000012011A60E169002905D0606900F088F9A8
:1039100001300138FDD1E0234C4A11680B404D497C
:103920000B6080214C4B090119608021364B490006
:103930005160E361494B5A68FF2A00D859608022E0
:10394000474B12011A60216A002905D0606900F016
:1039500067F901300138FDD1E023404A11680B407E
:1039600040490B608021404B0901196080235B00B6
:1039700053608022244BD20223623C4B596891420F
:1039800000D25A6080223A4B12011A60616A002903
:1039900005D0606900F044F901300138FDD1E02321
:1039A000324A11680B4033490B608021324B0901C8
:1039B00019608023DB025360144B63622F4B5A68FB
:1039C000FF2A02D8802252005A6080222C4B12011A
:1039D0001A60A169002905D0606900F021F9013061
:1039E0000138FDD1E023254A11680B4025490B60C1
:1039F0008021254B0901196080235B005360124B25
:103A0000A36101E7D80B0020006CDC021BB70000AB
:103A1000008000403CB0004030B00040002F6859AA
:103A200000800240008C864700C002403080004089
:103A30003090004030A00040001BB7003C800040A8
:103A40003C9000403CA00040405973075480004027
:103A500054B000405490004054A0004060800040AA
:103A600060B000406090004060A000406C8000406A
:103A70006CB000406C9000406CA00040488000405A
:103A800048B000404890004048A00040F8B504000D
:103A90000C2017001D000E0000F0C2F843011B1A95
:103AA0009901C91AC90009188901380000F0B8F84D
:103AB000069B29041B0319432368002B20DB194BA9
:103AC000194DE3185A4253418022520194461B0378
:103AD000164A63441360164A13601F00AA6897438E
:103AE000FBD1C023221D9B01134321222660A0602D
:103AF0001A602268002AFCDA0822E1601A60F8BD28
:103B00003F2322681340B342D9D1A3681B051B0D84
:103B10008342D4D1EE22E368D20213408B42CED14D
:103B2000EDE7C0460040FDBF00C0004000E000409F
:103B300000F000408023024A9B000343D362704799
:103B400000800540AA23064A1B0113602F23054964
:103B5000D360054B19605368002BFCDA7047C046F0
:103B60000040024000B0FA000060024010B500289A
:103B700000D110BD00F0E8FDFBE7C04610B5094AD2
:103B80000300146884B0002C08D00122009106487C
:103B9000524203A9A047012004B010BD00F026FE48
:103BA0000020F9E7D81100206D3B001001480421E6
:103BB000014B184750030020DD3B0010142310B5C3
:103BC0000100188804331B88984710BD162310B5D0
:103BD0000100188802331B88984710BDF8B5474686
:103BE000CE4680B50F1E19D0142399460433040025
:103BF0000025012698464B461888434621681B88B5
:103C0000984701C4431E9841013540420640AF42E7
:103C1000F1D13000C0BCB946B046F8BD0126F8E786
:103C2000114A936F9B0813D210665166002905D084
:103C3000FFE7FFE7FFE7516F106F704704B50028FB
:103C400001D00020C04301F02FFB002104BDC0467D
:103C5000F0B5146E556E576F166FFFF7E5FF1466DB
:103C6000556657671667F0BD000000D048404140D8
:103C7000484018B41B4B5B68FC46019308BD04DF49
:103C80008F3F001018B4174B1B68FC46019308BD0A
:103C900000DF993F00109446134A926F920809D2B0
:103CA000624618B40F4BDB68FC46019308BD0CDF7D
:103CB000514200100C4AF0B5146E556E576F166FD6
:103CC0006246FFF7EEFF084A1466556657671667A7
:103CD000F0BD18B4034B9B68FC46019308BD08DF98
:103CE000F5400010180D0020000000D0FFB5504036
:103CF0004240504059404B40594000E0FFB5154FFD
:103D00004C00640D03D0BC4204D10C0314D8002035
:103D1000090D09055C00640D03D0BC4204D11C03ED
:103D20000AD800221B0D1B0501264B4009D44B402D
:103D300003D58B4200D18242FFBD9942FCD1904213
:103D4000FFBD0B43DB1803431343F5D0C9434918A8
:103D5000FFBD0000FF07000000B5FFF7CFFF804167
:103D600000BDC04600B5FFF7C9FF01D9002000BD66
:103D7000012000BD00B5FFF7B9FF01D9002000BD4B
:103D8000012000BD00B5FFF7B1FF804100BD00007C
:103D90000021002805D17047C1174840401AFAD0C9
:103DA000C90713B5064B1B6898470CBC441CA240BE
:103DB0001005120B0349091B09051943114310BDD6
:103DC000181300201F04000010B54C00620D802362
:103DD000D218DB00D21A5B057E2A10DD9E3A13DA78
:103DE000CC170903490819435242D14064000134F9
:103DF0001532202A05DAD0400843604310BD002068
:103E000010BD0846604310BDC80FC018013810BD72
:103E100018B4044B9B69FC46019308BD18DF1D4490
:103E200000100000180D0020132370B51D78012D1F
:103E300015D010DD1D48FFF7C9FE1D4C0100802282
:103E4000200000F031FC022D2DD01A48FFF7B6FEFD
:103E5000194B186070BD194B154CA364F5E7174B4F
:103E6000134C23606360A360E36023616361A3611B
:103E7000E36123626362A362E36223636363A36318
:103E8000E36323646364A364E36423656365A365F8
:103E9000E36523666366A366E36623676367A367D8
:103EA000E367A364D1E7054BA364CEE75344000066
:103EB000180D00204C330000181300205D3F001047
:103EC000244A4B0094465B0D6344F0B504000D009A
:103ED0005A1C21DB5A1C35D0342B1CDA3326F61A37
:103EE0003700203F1CD40121B9400B000121B14013
:103EF0000A0012196B41002F1EDB0224BC40210076
:103F00000224B44020001600002544428D41264082
:103F10002B4030001900F0BDCB0F0020D907FAE785
:103F200020210120891BC8400121B14003000A0063
:103F300012196B41002FE0DA20240225A41BE54072
:103F40002900DDE7CB0F044ADB071A4300201100EC
:103F5000E1E7C04601FCFFFF0000F03F07B5604607
:103F600001880A0A0230DF2AFAD1C9B2820804D3D2
:103F7000028840880004104300E00068014A505065
:103F8000039007BD180D00200FB403BC0CBCF0B5A6
:103F90000124E407634000E0F0B50C0DCF0F661E6E
:103FA0003605891B640503D3C943404200D3013160
:103FB000640D03D0661CF60A07D0E41B00207F00C6
:103FC000791C89078912803C24031D0DDF0F6E1EAA
:103FD00036059B1B6D0503D3DB43524200D30133EF
:103FE0006D0D03D06E1CF60A07D0ED1B00227F007A
:103FF0007B1C9B079B12803D2D032F1B661B58D4F7
:10400000A446202E46DA20371400BC401D00BD40D7
:10401000F24033412A4380185941CB0F05D0C943A0
:10402000C043002264425041514162464D0D28D1A7
:104030000D0D07D100281FD0241940414941013AF4
:104040000D0DF9D0640006D3013000D30131002CEE
:1040500001D140084000013A0BD4941CE40A04D179
:1040600012051144DB071944F0BDD907204B194351
:1040700000E0D9070020F0BD0029DDD1002CDBD104
:10408000F0BD0132C6074008CD0728434908002E7D
:10409000E1D0D9E73C2E29DA203E40371400BC405D
:1040A00000D00124F24014431A00BB401C43D31734
:1040B000ACE7AC46202F08DA20360400B4400D00EF
:1040C000B540F84039412843A5E73C2F0CDA203FA2
:1040D00040360400B44000D00124F84004430800F6
:1040E000B1400C43C117EAE710001900002494E71F
:1040F0000000F07FF0B50C0D661E3605891BE60A40
:104100006405640D02D0651CED0A04D00020012175
:104110000905803C2403A4461C0D671E3F05DB1BDC
:10412000E70A6405640D02D0651CED0A04D0002284
:1041300001231B05803C24037740644497B484B278
:1041400096B27443070C7E43150C6F4380B26843EC
:10415000361802D3012000043F183004350C001932
:104160007D41844688B29AB250430C0C62431F0CC6
:104170007C438EB27E43921902D301263604A419E1
:104180001604170C3618674101BC81B29AB251432C
:10419000040C62431B0C5C4380B25843121802D3D8
:1041A0000120000424181004130C401863412D183A
:1041B0005E410020474106BC88B293B258430C0CC4
:1041C0006343120C544389B251435B1802D301215B
:1041D0000904641819041A0C091862416D18564133
:1041E0000020474118BCF902720D1143F0026A0D1C
:1041F0001043ED020A0D03D16D1940414941013BC5
:10420000124E9B1B7600B3420ED26D0007D30130D5
:10421000002671416646354301D1400840001B0528
:10422000C918E4072144F0BD0BDA013306D101308F
:1042300004D101314F0D01D04908F2E7E107002018
:10424000F0BD013631050020EBE70000FF03000060
:10425000F0B51C0D671E3F05DB1BE70A6405640D06
:1042600002D0661CF60A04D0002201231B05803C04
:104270002403D0252D060026F6432E661E096E6601
:10428000CE0FF619B44649004F0D02D07E1CF60A37
:1042900003D000200021403F3F033E1BB600B44442
:1042A000013F7F05C91B49082E6F013676089C0225
:1042B000950D25437543ED137543AD1301356D1011
:1042C000F603761B0CB4CC02450D2C43A2B2B3B25C
:1042D0005A43270C7B43350C6F43A4B26C431B1924
:1042E00002D3012424043F191C041D0CA4187D4191
:1042F00024196D41009A91B2ACB26143170C7C4312
:104300002B0C5F4392B25A43A41802D30122120429
:10431000BF182204230C52187B41019C6C431B19CB
:10432000520ED9010A434401A01A81B2B2B25143DC
:1043300003145A43360C734387B27743D617D21906
:1043400000277E4136049B191704160C7F185E4126
:104350007316ED18F301002680337541A90F06D1BD
:104360006400690AE8055B0A184309D22FE00422B9
:10437000944480337541A90AA8059B0A184326D3A3
:10438000404149412404009A019B0D005543641BA0
:104390004343E41A95B286B27543170C7E43030C6F
:1043A0005F4392B25A43B61802D301221204BF18D7
:1043B0003204330C52197B4152429C41002C02D4EE
:1043C0000022013051414008CA071043490802B099
:1043D0006246D7079210084BD218084B9A4203D274
:1043E00012058918C919F0BD0020002A01DC390026
:1043F000F0BD01331905F5E7FD030000FE070000DD
:1044000007DA002107E0C90FC907520D03D0C9120E
:1044100001E04C49090500207047C0464A00F2D22D
:10442000520D013A484B9A42EAD2F0B51405091BE5
:10443000520801D3001849419B08D218120594462E
:1044400040A44A0CA25C0B09534353431B13534330
:104450005B131202D21A13005B435B0B4C086343DD
:10446000DB135343DB1501335B10D21A130CD21A42
:1044700013005B438902840D21438DB29EB27543C4
:104480000F0C7E431B0C5F438CB25C43361902D386
:10449000012424043F193404330C64197B419D0129
:1044A000A40E2C432034A5B25543241454432D0CA0
:1044B0006419A411D203121B95B28EB27543170C66
:1044C0007E430C0C674393B26343F61802D3012377
:1044D0001B04FF183304340C5B197C41DB18644166
:1044E000DB18002363419EB276439DB21F0C7D43CF
:1044F0007F436C04ED0BA4197D4106028F08361B27
:10450000AF417D07F6086E41B4B295B26C433714E3
:104510007D43120C5743B6B25643EA17AD19002635
:1045200072411204BF182E042A0C36197A4108323F
:10453000521117D29D0A9C05D11710196941614487
:10454000F0BD0000FF070000FE070000F8EBDFD61B
:10455000CDC5BEB8B2ADA8A4A09C9995928F8D8A06
:104560008885838152415D0ADC05D11714194D41BC
:104570002B006343A6B27643A2B2270C7A437F4353
:104580005104D20B89197A41D218D21880054942B8
:10459000904102D4002301345D4160086908ED07B1
:1045A00028436144F0BDC04651434343C9188C467B
:1045B000110C83B24B4310B4040C614392B280B22D
:1045C000504362431C041B0C001910BC59411304D6
:1045D000120CC0185141614470470000132310B5FC
:1045E00012481C78FFF7F2FA0100012C0AD003DD13
:1045F00080220F4800F058F80E48FFF7DFFA0E4B04
:10460000186010BD0A4C5422200000F04DF80B4BEE
:104610006365A365E36523666366A366E366236754
:104620006367A367E3672362E361E5E7534600003E
:10463000180E00204C3300001813002041460010D3
:1046400007B5604601880A0A0230DF2AFAD1C9B2EA
:10465000820804D3028840880004104300E0006808
:10466000014A5050039007BD180E002010B50400F9
:1046700000F04CF9002804D0034B04199C4200D8E8
:1046800010BD0248FFF78AF800000420A45800106B
:1046900010B500F045F910BD01480421014B184741
:1046A00060030020DD3B0010014B5B6818470000F1
:1046B00060030020F0B5C64600B5437C07000D003E
:1046C0001600002B38D0002A2EDD00216A1E9046ED
:1046D0006A5C037C4C1C00200A2A0CD0A64216D02F
:1046E00043461B5D21000D3B5A4253416A5CDBB2DD
:1046F0004C1C0A2AF2D1002BF0D1814217DC022196
:1047000010483B689847A64207D02000E8E7864259
:1047100003DD311A3B6828189847AD19013D2B7805
:104720000D3B5A4253413B7480BCB846F0BD091A58
:104730003B6828189847E2E703681100280098476B
:10474000F2E7C04618590010F0B5CE46474680B58E
:1047500083B06B46DE1CD02330701B061C68204BD8
:10476000804601A91800994600F0A6FD071E20D03A
:104770001C4B1C68002C29D01B4D02E0E468002C67
:104780000FD02368002BF9D02B68002B01D0A34257
:10479000F4D1200001223100FFF78CFFE468002CE7
:1047A000EFD1002F12D1404603B0C0BCB946B0468D
:1047B000F0BD019B64B29C420CD0484600F08CFDD9
:1047C000084B1C68002C01D00127D5E7484600F0B3
:1047D0005BFDE8E7034B1C68002CCDD1E3E7C04646
:1047E000B40B0020B4100020BC100020F0B5DE4651
:1047F00045464E465746E0B583B0060000F076FBCE
:10480000D0231B061C68304B050001A918009B46ED
:1048100000F052FD804600283DD02C4B1C689A4683
:10482000002C47D00A232A4F994602E0E468002C66
:1048300017D02368002BF9D03B68002B01D0A3428E
:10484000F4D120002A003100FFF734FF6B464A46BE
:1048500020001A7101A90122FFF72CFFE468002C47
:10486000E7D14346002B25D153461C68002C06D0C7
:104870006368002B0BD09847E468002CF8D128001F
:1048800003B0F0BCBB46B246A946A046F0BDE46802
:10489000002CEDD1F3E7019B64B29C420ED0584648
:1048A00000F01AFD094B1C689A46002C02D0012327
:1048B0009846B7E7584600F0E7FCD5E7034B1C687D
:1048C0009A46002CAED1DAE7B40B0020B4100020D9
:1048D000BC10002010B5010000230022002000F0D1
:1048E00033FB10BD70B5074C074D641BA41005D0F9
:1048F000013CA300EB589847002CF9D100F0C2FC12
:1049000070BDC046D40B0020D40B002010B5034B63
:104910000100186800F00EF810BDC04670030020BA
:1049200010B5034B0100186800F0BEFB10BDC04677
:1049300070030020F0B54E464546DE465746E0B5CA
:104940000D000B35060083B0162D21D8102900D993
:104950009FE000F0A9FA102518230221C74FFB1889
:104960001A005C68083A944200D1A2E0032263680E
:104970009343E268A168CA6091600121E3185A6814
:1049800030000A435A6000F097FA2000083083E0B4
:1049900007239D437DD4A9427BD800F085FAFC23F0
:1049A0005B009D4200D2A2E1690A00D17BE00429AC
:1049B00000D957E138239846A90988443931C800FD
:1049C000AE4F381844680838A0420ED003239C46E6
:1049D00004E0002ACDDAE468A04206D062466368AB
:1049E00093435A1B0F2AF4DD41463A003C690832D2
:1049F000944268D00320636883439946581B0F286C
:104A000000DD78E17A613A610028B6DA802292000E
:104A1000934200D3FEE05809DA0801238340D20014
:104A20007868D219034390687B60E260A06094606C
:104A3000C46001208A10904098424AD8034205D1B0
:104A400003229143400004310342FBD003239846E4
:104A5000CB009946B944CC468A466346DB680BE0F6
:104A600044465A689B46A243DB68541B0F2C00DD6A
:104A700014E1002C00DB2BE19C45F1D108239B467F
:104A8000073BDC449B46DA44434652461342E4D19A
:104A90006BE10C230020336003B0F0BCBB46B24690
:104AA000A946A046F0BD80203F23402198468000C3
:104AB00086E7DC680231A34200D057E73A003C6940
:104AC0000832944296D101207B688A109040984227
:104AD000B4D90322BC68636893439A469D4203D8C5
:104AE0005B1B0F2B00DD87E023005344644A0193D6
:104AF000644B90461B681268EB18013200D149E103
:104B0000614A944663441B0B1B03009330000099D9
:104B100000F0DAF903008146013300D106E1019B80
:104B2000834200D900E1594B00989B468446594680
:104B30001B6863440B6001991A00494500D15FE18D
:104B400043461B68013300D164E14B4601995B1A6F
:104B50009B185A46136007234A4649461A40019259
:104B6000194200D120E18B1A082189460099994405
:104B7000474B49449B1A5B1A1B051B0D00913000E3
:104B80001900984600F0A0F9431C00D15EE14B46A5
:104B9000C01A0300434400935B465A461B68012039
:104BA000434413604A464946BA60009A02434A6049
:104BB000BC4200D132E152460F2A00D830E1072131
:104BC0000C3A8A4361680140052011436160A118D5
:104BD000486088600F2A00D943E14A464C46526833
:104BE0002C490868984200D20B602B49086898420B
:104BF00000D39DE00B609BE0012229001343114389
:104C0000651961603000BD606B6000F055F92000EF
:104C1000083041E75A0A042A00D87FE0142A00D954
:104C2000D2E010005C325B30D20008235B429C462D
:104C3000BA18944463469A6803239846944500D171
:104C4000ABE0434650689843484502D99268944582
:104C5000F7D1D3689C467B686046A260E0608460C0
:104C6000D460E6E6142970D9542900D9B4E06E2343
:104C70009846290B88446F31C800A1E6A0070020A0
:104C8000A80B0020500F00200F100000200F002064
:104C900008100000480F00204C0F0020012059464A
:104CA0008446491905435846456085686046EB606F
:104CB0009D605B4679613961204308374860CF6069
:104CC00030008F609C5000F0F7F858460830E3E65B
:104CD00001205A445168014351605A46926830009D
:104CE000D3609A6000F0E8F858460830D4E62B000C
:104CF000E908083332E6012361191D4365607961D3
:104D00003961CA608A601A004B4602434A60E0502B
:104D1000300000F0D1F820000830BDE69A091000FC
:104D200039323830D20080E7BC4260D0BC6862685B
:104D300003239A43531B954202D80F2B00DD5BE7F8
:104D4000300000F0B9F80020A6E65B2398468844BE
:104D50005C31C80034E608235B429C46E1444B4684
:104D60009B6801394B4500D098E043460B42F2D195
:104D70007B6883437B604000984200D9A9E6002805
:104D800004D1A6E6042294464000E2440342F9D04E
:104D900051465DE610330093B8E68010023B834035
:104DA000786803437B6057E7009B30004B445B42CD
:104DB0001B051B0D1900984600F086F8431C00D017
:104DC000E5E600239846E7E6542A2BD81A0B100094
:104DD0006F326E30D20028E7AA235B0099422BD8AD
:104DE000DD3B9846E90B88447831C800E8E52C4B58
:104DF0009B461A68009B9C465B4662441A609FE68D
:104E0000090500D09CE60200BC68524401310A4307
:104E10006260E5E643464A461A609CE64C46DFE699
:104E200048608DE7AA204000824224D8DA0B1000A7
:104E300078327730D200F8E61A4B994224D87C2396
:104E40009846A90C88447D31C800B9E5009A019BB9
:104E500094464A46083B63449B1A009300239846B5
:104E60009AE621003000083100F01EF95B46BC686C
:104E70001B686268B4E60B4882420BD89A0C10009B
:104E80007D327C30D200D0E6FE207E237F21984602
:104E9000800095E5FE227E209200C6E67B686AE7E8
:104EA000200F00205405000010B5024800F0E6F97C
:104EB00010BDC0461C0F002010B5024800F0E0F9FC
:104EC00010BDC0461C0F0020002370B5064C050025
:104ED00008002360FEF746FC431C00D070BD236829
:104EE000002BFBD02B60F9E7B810002010B583072A
:104EF0000AD00300032102E001330B4205D01A78E7
:104F0000002AF9D1181A10BD030019680C4A0D4C7B
:104F10008A188A4322420FD15968094A04338A18F1
:104F20008A43224208D15968054A04338A188A43C1
:104F30002242F1D000E001331A78002AFBD1E1E7E8
:104F4000FFFEFEFE80808080F0B5D6464F46464686
:104F50009846264BC0B50600186891469A460F0041
:104F600000F08CF9A422224B52001B689D58002DA2
:104F700032D053466C6818681F2C32DC002E0CD1DE
:104F8000631C0234A4006B60675100F079F90020C3
:104F9000E0BCBA46B146A846F0BD49468822A30007
:104FA000EB189950C42149008C46AC446146873ABD
:104FB000A24009689146114362461160842142462D
:104FC00049005A50022EDBD129004A468D31FF316B
:104FD0000B6813430B60D3E71D004D35FF359D5023
:104FE000C7E700F04DF901204042D1E7B00B0020A7
:104FF0001C590010034B10B5002B02D00248FFF7DC
:1050000069FC10BD00000000E5480010F8B50C0078
:105010000500FFF749FF204FBB685E6803239E43EE
:105020001E4B341B9C466444240B013C1133240367
:105030009C4207DB00212800FFF746FFBB689B1955
:10504000984204D02800FFF737FF0020F8BD280061
:105050006142FFF739FF01300DD00122361BBB68DA
:1050600016430F4A5E60136828001B1B1360FFF78E
:1050700023FF0120EAE700212800FFF725FFBA6897
:10508000831A0F2BDEDD074C05492468001B0860DE
:1050900001210B435360D5E7A0070020EF0F00006C
:1050A000200F0020A80B0020F8B5CE46474605008B
:1050B0000C0080B5002959D0FFF7F6FE2100083911
:1050C00048680123020003249A438F189C46664EC9
:1050D0007B68A343B468BC4200D172E0FC18A146CF
:1050E00064467B60044224D10868091A1218886853
:1050F0008046484640682040340008348146A04538
:1051000053D04046CC68C460A0604846002814D103
:10511000D21801238C18A446B868544C1343A042FB
:1051200000D17DE0FC68C460A0604B6063461A60FB
:1051300007E0484640682042EAD0634613434B608C
:105140003A6080239B009A4214D25009D30801226E
:1051500082407068DB009B19024372609A68CB60E2
:105160008A609960D1602800FFF7A6FEC0BCB946EE
:10517000B046F8BD540A042C3CD8940920003934B8
:105180003830E40034192368083C03279C4240D09F
:105190005868B843904202D99B689C42F8D1DC68B9
:1051A000CC608B60A160D960DDE7002857D1B8687A
:1051B0009A18FB68C3609860634613434B608A503B
:1051C000D1E7D3186246024206D10A68891A886874
:1051D0009B18CA68C260906001221A434A60244A40
:1051E000B16012689A42BED8224B28001968FFF7B6
:1051F0000DFFB8E7142C07D9542C19D8140B200034
:105200006F346E30E400BDE720005C345B30E400B6
:10521000B8E7012280108240706802437260BFE7E5
:10522000C16081604B606346C86088601A609AE71D
:10523000AA204000844205D8D40B2000783477306F
:10524000E4009FE70C48844205D8940C20007D348C
:105250007C30E40096E7FE247E20A40092E76346BB
:1052600013434B603A607EE7A0070020A8070020A8
:10527000AC0B0020500F0020540500007047C046C2
:105280007047C046F8B5C04601B40248844601BC28
:10529000604700BF4901002001B40248844601BCB8
:1052A000604700BF2D02002001B40248844601BCC3
:1052B000604700BFAD02002001B40248844601BC33
:1052C000604700BF0901002001B40248844601BCC8
:1052D000604700BFAD01002001B40248844601BC14
:0852E000604700BFC10000207F
:1052E8000EFF0706FF0000001BFF1A16FF00000054
:1052F80000007E3E4220423C4204427C7E40000048
:105308000000000000000000000000000000000095
:1053180000007E0042004200420042007E00000081
:10532800000038002400240038002000200000007D
:105338000000003E0020003C0004007C004000000B
:10534800000038002400240038002000200000005D
:1053580000007E3E4220423C4204427C7E400000E7
:10536800000038002400240038002000200000003D
:105378000000000000000000000000000000000025
:105388000000000000000000000000000000000015
:105398000000E4AE8AE8AAAEAEA8EAAE00000000BB
:1053A80000000000EAECAA8AAAECAA8AE4EA000053
:1053B80014580010CC570010C4530010CC530010E0
:1053C80020002C0101800000000000000000000007
:1053D80000000000000000000000000000000000C5
:1053E80000000000018003C0000000000000000071
:1053F80000000000000000000000000000000000A5
:1054080000000000018003C007E000000000000069
:105418000000000000000000000000000000000084
:1054280000000000018003C007E00FF0000000004A
:105438000000000000000000000000000000000064
:1054480000000000018003C007E00FF01FF8000013
:105458000000000000000000000000000000000044
:1054680000000000018003C007E00FF01FF83FFCB8
:105478000000000000000000000000000000000024
:1054880000000000018003C007E00FF01FF83FFC98
:105498007FFE000000000000000000000000000087
:1054A80000000000018003C007E00FF01FF83FFC78
:1054B8007FFEFFFF00000000000000000000000069
:1054C80000000000018003C007E00FF01FF83FFC58
:1054D8007FFEFFFFFFFF000000000000000000004B
:1054E80000000000018003C007E00FF01FF83FFC38
:1054F8007FFEFFFFFFFF7FFE0000000000000000AE
:1055080000000000018003C007E00FF01FF83FFC17
:105518007FFEFFFFFFFF7FFE3FFC00000000000052
:1055280000000000018003C007E00FF01FF83FFCF7
:105538007FFEFFFFFFFF7FFE3FFC1FF8000000001B
:1055480000000000018003C007E00FF01FF83FFCD7
:105558007FFEFFFFFFFF7FFE3FFC1FF80FF00000FC
:1055680000000000018003C007E00FF01FF83FFCB7
:105578007FFEFFFFFFFF7FFE3FFC1FF80FF007E0F5
:1055880000000000018003C007E00FF01FF83FFC97
:105598007FFEFFFFFFFF7FFE3FFC1FF80FF007E0D5
:1055A80003C00000018003C007E00FF01FF83FFCB4
:1055B8007FFEFFFFFFFF7FFE3FFC1FF80FF007E0B5
:1055C80003C00180018003C007E00FF01FF83FFC13
:1055D8007FFEFFFFFFFF7FFE3FFC1FF80FF007E095
:1055E80003C00180018003C007E00FF01FF83FFCF3
:1055F8007FFEFFFFFFFF7FFE3FFC1FF80FF007E075
:1056080003C00000018003C007E00FF01FF83FFC53
:105618007FFEFFFFFFFF7FFE3FFC1FF80FF007E054
:1056280000000000018003C007E00FF01FF83FFCF6
:105638007FFEFFFFFFFF7FFE3FFC1FF80FF000001B
:1056480000000000018003C007E00FF01FF83FFCD6
:105658007FFEFFFFFFFF7FFE3FFC1FF800000000FA
:1056680000000000018003C007E00FF01FF83FFCB6
:105678007FFEFFFFFFFF7FFE3FFC000000000000F1
:1056880000000000018003C007E00FF01FF83FFC96
:105698007FFEFFFFFFFF7FFE00000000000000000C
:1056A80000000000018003C007E00FF01FF83FFC76
:1056B8007FFEFFFFFFFF0000000000000000000069
:1056C80000000000018003C007E00FF01FF83FFC56
:1056D8007FFEFFFF00000000000000000000000047
:1056E80000000000018003C007E00FF01FF83FFC36
:1056F8007FFE000000000000000000000000000025
:1057080000000000018003C007E00FF01FF83FFC15
:105718000000000000000000000000000000000081
:1057280000000000018003C007E00FF01FF8000030
:105738000000000000000000000000000000000061
:1057480000000000018003C007E00FF00000000027
:105758000000000000000000000000000000000041
:1057680000000000018003C007E000000000000006
:105778000000000000000000000000000000000021
:1057880000000000018003C00000000000000000CD
:105798000000000000000000000000000000000001
:1057A8000000000001800000000000000000000070
:1057B80000000000000000000000000000000000E1
:1057C80000000000D45700100200E803AAAA5555AB
:1057D800AAAA5555AAAA5555AAAA5555AAAA5555C9
:1057E800AAAA5555AAAA5555AAAA55555555AAAAB9
:1057F8005555AAAA5555AAAA5555AAAA5555AAAAA9
:105808005555AAAA5555AAAA5555AAAA1C58001012
:105818000100FFFFFFFFFFFFFFFFFFFFFFFFFFFF8D
:10582800FFFFFFFFFFFFFFFFFFFFFFFFFFFFFFFF80
:10583800FFFFFFFF601700102E15001090160010D4
:10584800CA130010601800108C180010CE18001031
:1058580016190010001A00104861726477617265A9
:1058680020616C61726D20256420616C72656164D1
:105878007920636C61696D65640000000A2A2A2A30
:105888002050414E4943202A2A2A0A000A000000D3
:105898004861726420617373657274004F75742077
:1058A8006F66206D656D6F727900000052656C65DA
:1058B80061736500626F6F74325F773235713038AB
:1058C80030000000312E342E300000007069636F04
:1058D80000000000424F4152445F544553540000B9
:1058E8004E6F762020392032303232000600525076
:1058F800D3F07542B458001006005250E182887FF8
:10590800BC58001006005250BBFF3CB6D4580010DB
:085918000D0A000078030020D5
:10592000F458001000590010900200100C5900109B
:0C5930009C020010A8020010B40200103D
:10593C00D02330B500251B0600245D5706E0036814
:10594C00BFF35F8F1C6081F3108820BF0268EFF3F8
:10595C00108172B61368002BFCD0BFF35F8F0379F4
:10596C007F2BECD905710368BFF35F8F00221A609F
:10597C0081F3108830BDC04603000068EFF3108C33
:10598C0072B60268002AFCD0BFF35F8F04229A56CD
:10599C00002A04DB002900D00A60002004E0D02299
:1059AC000120120612681A711B68BFF35F8F002268
:1059BC001A608CF3108870470268EFF3108172B68E
:1059CC001368002BFCD0BFF35F8FFF2303710368B8
:1059DC00BFF35F8F00221A6081F3108840BF7047BD
:1059EC0010B5084C2378002B0AD1802306480749B0
:1059FC005B051A68C25004338B42FAD10123237021
:105A0C0010BDC04630130020680F001000010010BC
:105A1C0010B5014B984710BD690F0020F0B58023DD
:105A2C00D6464F464646421804000D00C0B59B03AF
:105A3C009A4227D814271826388833881349984750
:105A4C0033888246124938889847338881461149F1
:105A5C00388898473388104980463888984706001C
:105A6C00FFF7BEFFD047C84780222900D82320006B
:105A7C005202C047B047FFF7CBFFE0BCBA46B14675
:105A8C00A846F0BD00F04CF8D4E7C04649460000EB
:105A9C00455800005245000046430000F8B54E46FC
:105AAC004546DE4657468023E0B5150082180400B3
:105ABC0089469B039A4226D814271826388833889F
:105ACC001249984733888346114938889847338858
