:020000041000EA
:1000000000B5324B212058609868022188439860DF
:10001000D860186158612E4B002199600221596106
:100020000121F02299502B49196001219960352056
:1000300000F044F80222904214D00621196600F024
:1000400034F8196E01211966002018661A6600F04E
:100050002CF8196E196E196E052000F02FF8012189
:100060000842F9D1002199601B49196000215960AB
:100070001A491B48016001219960EB211966A021F2
:10008000196600F012F800219960164914480160C1
:100090000121996001BC002800D000471248134993
:1000A000086003C880F30888084703B5996A0420EC
:1000B0000142FBD001200142F8D103BD02B5186610
:1000C0001866FFF7F2FF186E186E02BD00000240BE
:1000D000000000180000070000035F00212200005C
:1000E000F4000018222000A00001001008ED00E03C
:1000F00000000000000000000000000074B24E7A12
:1001000000200420F7010010C3010010C5010010F9
:10011000C1010010C1010010C1010010C101001097
:10012000C1010010C1010010C1010010C701001081
:10013000C1010010C1010010C9010010CB01001065
:10014000CD010010CD010010CD010010CD01001037
:10015000CD010010CD010010CD010010CD01001027
:10016000CD010010CD010010CD010010CD01001017
:10017000CD010010CD010010CD010010CD01001007
:10018000CD010010CD010010CD010010CD010010F7
:10019000CD010010CD010010CD010010CD010010E7
:1001A000CD010010CD010010CD010010CD010010D7
:1001B000CD010010CD010010CD010010CD010010C7
:1001C00000BE00BE00BE00BE00BE00BE00F04BF888
:1001D000103800BEF2EB8871803900109C39001095
:1001E0003402001090A31AE700202149086006C8D5
:1001F00081F3088810471F48006800282FD10DA4FC
:100200000ECC002902D000F012F8F9E71A491B4A77
:10021000002000E001C19142FCD1194988471949E9
:1002200088471949884700BEFDE701C901C29A42C3
:10023000FBD370479C390010C0000020C40B002085
:10024000A04400100000042000000420A04400107E
:1002500000100420001004200000000070470B482C
:1002600002F0AAFB0047EFF30580C0B27047000020
:1002700008ED00E0000000D0C80B00200C130020A7
:1002800075240010E5020010952500105756000057
:1002900006005250ABB360532C3900100600525088
:1002A000861C03023C390010060052505422A29DC5
:1002B0004839001005005250DE65F468A044001073
:1002C000F8B5C046044B10B5002B03D003490448D1
:1002D00000E000BF10BDC04600000000B0110020CB
:1002E0007038001010B584B06946104B68461A6823
:1002F00000929A888A809A6802929B898B8100F08A
:1003000055FA02A800F052FA6A46094B1A60094BE6
:1003100002AA1A6000F06AFC00F05CF9012000F00B
:10032000FBF9054C200000F021FBFBE770380010C2
:10033000A4110020A0110020803800100E4A41694D
:100340001378002B08D10D4B086818600C4B0B601C
:100350000123137001200CE0D8070BD50748006873
:100360000860591C1170082BF4D901220020054B9C
:100370001A7070470248F3E7021300203C0F002078
:10038000A038001003130020022815D00AD8002836
:100390001AD08423104A5B00D15C032901D00121CB
:1003A000D15470470328FCD184230B4A5B00D15CF5
:1003B0000129F6D0D054F4E78423074A5B00D15CCE
:1003C0000029EED0D054ECE78423034A5B00D15CD3
:1003D0000229E6D0D054E4E794100020F0B5D646C8
:1003E0004F4646468022C0B5784D84235200A95C12
:1003F00002225B00EB5CFF328246AA5C022B00D13A
:1004000097E0032B00D190E0012B00D189E0170089
:100410004C1EE4B22301EB18DB5DA4463E00002B2A
:1004200043D0032B00D188E00122694B08211A70C8
:100430000020002200F04CFD00220821012000F0E5
:1004400047FD00220821022000F042FD0022082181
:10045000032000F03DFD00220021002000F026FDD9
:1004600000220021012000F021FD002200210220B5
:1004700000F01CFD03200022002100F017FD822364
:100480005B00E85800280AD04468002C05D002F030
:10049000C1FB20006468002CF9D102F0BBFB0020F6
:1004A000E0BCBA46B146A846F0BD0533FF33EB5871
:1004B000002B00D182E0012002268046681CB44651
:1004C000FF3010E0604624012C19E0555E68187872
:1004D0005C78002E11D0170022000C0001001800DB
:1004E00033000026B0460470477040460028E9D12A
:1004F0005E6818785C78002EEDD18C4616005A7034
:100500001970634602221B01EB189A550023000163
:100510002818035553462800596900F079FA01203C
:10052000BEE7571C0C00FFB274E7571E0C00FFB269
:1005300070E74C1C1700E4B26CE76E1CFF36B14646
:100540007668002EFBD1082002F052FB4B46586023
:1005500046601B8801210380822302205B00EA5849
:100560006B1C8046FF33002A0CD114E04346240163
:100570002C19E355516800290DD0130037000A00EB
:100580000400002118785E781C705F700029EDD19E
:1005900051680029F1D10E21012000F05FFB040019
:1005A0000E21012000F05AFBE4B22401C0B22C1944
:1005B000225C002AEFD103322254ABE76B1C1400FB
:1005C00008003A006146FF3399E7C04694100020C6
:1005D000031300200222F8B54C4CFF32944623004E
:1005E0000021012000224A4F13E00F291FD00026CE
:1005F0005A709A70DA701A715A719A71DA711A72A5
:100600005A729A72DA721A735A7301311033AE73D6
:10061000E8731D0018700029E7D16146012661804A
:10062000A181607001216760A7601033EFE7F123BB
:100630000222E054FF320133E252354B0D3AA3500F
:100640000432A3500432A3500E21012000F006FB17
:1006500005000E21012000F001FBEDB22D01C0B21A
:1006600065192A5C002AEFD103218223295402262E
:1006700080255B00E2506D00FF360E21012000F066
:10068000EDFA0E216055012000F0E8FAC0B2A05545
:10069000635D1B01E3181A5C002AEED102321A5482
:1006A0000321002000F0DAFA84235B00E054194CA7
:1006B000012223000821002000F034FC2300012245
:1006C0000821012000F02EFC230001220821022035
:1006D00000F028FC230001220821032000F022FC66
:1006E00001220021002000F0E1FB01220021012075
:1006F00000F0DCFB01220021022000F0D7FB0122E8
:100700000021032000F0D2FBF8BDC0469410002069
:10071000010101018903001070B506009AB012AC06
:10072000059401F0ABF9FA22013633069B1B9B01BD
:100730009B195B0005009819400000239200C11727
:1007400002F0F4F90B0006A9029114490200019489
:100750002800009101F096F9114C2378002B05D167
:10076000059800F003F92378002BF9D001F086F901
:100770000CAB029305AB01930A4B0B4A0093012388
:100780005B4201F07FF900232370059800F0EEF83A
:100790002378002BF9D01AB070BDC046DD030010DD
:1007A000031300203D030010E05EF8FF70B5040065
:1007B00000781C283FD8012600F016FC3200237870
:1007C000D0259A402D066A62AA61E0781C2832D8AA
:1007D00000F00AFC3200E3789A406A62AA61A078CD
:1007E0001C2821D9FF23A37060781C2812D9FF236D
:1007F000637020791C2803D9FF232371002070BD6A
:1008000000F0F2FB012322799340D02212065362BA
:100810005361F3E700F0E8FB012362789340D022B4
:10082000120653629361E4E700F0DEFBA3789E407A
:100830006E62AE61D8E701204042E0E7F0B54E4677
:100840004546DE465746E0B583B00E0015000190E0
:10085000002978D002000378012001009940D37864
:100860000222984001239B46D023924602329146B1
:10087000043290460832002494461B062FE0574667
:10088000996158619861174233D14F469961586117
:100890009861174233D14746996158619861174270
:1008A00033D16746996158619861174233D1202747
:1008B000996158619861174233D140279961586115
:1008C0009861174233D19961D2095861986133D147
:1008D0000134E2B2996158619861964233D95F461A
:1008E0002A5D1742CBD0574659615861986117422B
:1008F000CBD04F465961586198611742CBD04746DB
:100900005961586198611742CBD067465961586167
:1009100098611742CBD020275961586198611742DE
:10092000CBD040275961586198611742CBD05961AB
:10093000D20958619861CBD00134E2B25961586153
:1009400098619642CBD801230199AD198A78013D6F
:100950009340D0221206536193612B784B7103B000
:10096000F0BCBB46B246A946A046F0BDF0B5C646AF
:10097000060000B500283ED0204B214D214C2B8095
:1009800000232370204B214F98462A00022138680B
:10099000FFF754FF43462278186852000221B2182C
:1009A000FFF74CFF6B7801205B086B7001F0DCF9FE
:1009B00023780133DBB22370072BE6D980232B8009
:1009C000783B23702A0002213868FFF737FF43463F
:1009D0002278186852000221B218FFF72FFF2B78F7
:1009E00001205B082B7001F0BFF923780133DBB2E3
:1009F00023700F2BE6D980BCB846F0BD0080FFFF06
:100A0000E011002005130020A0110020A4110020F7
:100A10007F23F0B557464E464546DE469A46FF3B95
:100A20009946421CC033E0B598469C4620272026B4
:100A30001025FF3268E04C460B782343DBB20B7085
:100A40004478002C6AD064462343DBB20B70847870
:100A5000002C69D03343DBB20B70C478002C68D013
:100A600010242343DBB20B700479002C66D00824D9
:100A700023430B704479002C66D0042423430B706D
:100A80008479002C66D0022423430B70C479002C97
:100A900066D10134A3430B70037A002B66D04C4619
:100AA0004B782343DBB24B70447A002C65D064460C
:100AB0002343DBB24B70847A002C64D03343DBB227
:100AC0004B70C47A002C63D010242343DBB24B70EC
:100AD000047B002C61D0082423434B70447B002C02
:100AE00061D0042423434B70847B002C61D002240A
:100AF00023434B70C47B002C61D10134A3431030DD
:100B00004B700231824261D00378002B93D154465E
:100B10000B7823400B704478002C94D14446A343B7
:100B20000B708478002C95D1BB430B70C478002CDB
:100B300096D1AB430B700479002C98D10824A343C1
:100B40000B704479002C98D10424A3430B70847952
:100B5000002C98D10224A3430B70C479002C98D0A8
:100B6000012423430B70037A002B98D154464B7811
:100B700023404B70447A002C99D14446A3434B70D8
:100B8000847A002C9AD1BB434B70C47A002C9BD141
:100B9000AB434B70047B002C9DD10824A3434B70C6
:100BA000447B002C9DD10424A3434B70847B002CF8
:100BB0009DD10224A3434B70C47B002C9DD0012403
:100BC000103023434B70023182429DD10822054BE5
:100BD0001A70054B08321A70F0BCBB46B246A946E3
:100BE000A046F0BD0713002004130020154AF8B5F5
:100BF0001368002B24D1144B144C1E78144B1D7811
:100C0000144B2F041878144B023519783306DB196E
:100C10005B18070204310330A070E170802080214E
:100C2000DB194901C002013613602670657002F0BD
:100C30000FFE8022802021005200C00202F0F0FD51
:100C4000F8BDC046E411002000000410E8110020A7
:100C5000010004100200041003000410084B10B53A
:100C60001A6804000748091B5043074A013194469B
:100C70006044186001F0D2FE601880B210BDC0461A
:100C8000E41100200D6619005FF36E3CD0231B06B3
:100C90001B68824A99005258F0B5574692465A1E30
:100CA00093413022DE464E4645465B421A401300D1
:100CB0007B4AE0B5944683B063440193794B884600
:100CC00000260F279B46F2081300019908339B006A
:100CD0005C5835000836002C22D001239946534633
:100CE000002B26D039002140274213D05B464246D4
:100CF0009A584B46AB401A420CD1072208002A40B2
:100D0000920090400200EB0867483C339B001A5069
:100D10002800D04724090135002C01D0B542E1D389
:100D2000202ED0D103B0F0BCBB46B246A946A046A7
:100D3000F0BD39002140274209D00133AB409C4629
:100D400043465848C0586346184200D17EE0230904
:100D5000E6D00F22110019401A420FD06B1C0E3A38
:100D60009A40944642464F4880586246104205D108
:100D7000DB084D4A3C3309019B009950230ACFD030
:100D80000F22110019401A420FD0AB1C0E3A9A40A4
:100D900094464246434880586246104205D1DB08DB
:100DA000414A3C3309029B009950230BB8D00F22D3
:100DB000110019401A4238D1230CB1D00F22110072
:100DC00019401A4247D1230DAAD00F221100194011
:100DD0001A4251D1230EA3D00F22110019401A42FA
:100DE0000FD0AB1D0E3A9A40944642462D4880588B
:100DF0006246104205D1DB082B4A3C3309069B00B2
:100E00009950240F0735002C00D189E70123414672
:100E1000AB40244A52581A4200D081E7ED08224ADA
:100E20003C352407AD00AC507AE7EB1C0E3A9A40F3
:100E3000944642461B48805862461042BCD1DB08AB
:100E4000194A3C3309039B009950B5E7164B3C32D5
:100E50009200D1507BE72B1D0E3A9A4094464246B1
:100E60001048805862461042ADD1DB080E4A3C3330
:100E700009049B009950A6E76B1D0E3A9A409446D0
:100E800042460848805862461042A3D1DB08064A11
:100E90003C3309059B0099509CE7C0464010002058
:100EA00000410140D811002000400140074B800064
:100EB0009C4660440368C90092000A435A400C23D0
:100EC0001A4080235B0103431A60704704C001404D
:100ED000D0231B061B6830B50500584243412F2024
:100EE0005B4283430D48EC0884460720284080007D
:100EF000814020000A4D3C3063448000A4004151F1
:100F00001B19002A04D0802292011343196030BDBE
:100F1000C022920113431960F9E7C04630410140F5
:100F200000400140F8B51D00D0231B061C680600D8
:100F3000604244412F20644284432748F708844696
:100F400007203040800081403800244E3C3064440B
:100F50008000BF008151E419002A11D08022920143
:100F6000224311601C681E4EA400A359002B15D00B
:100F7000002D25D0A55101210D2000F097F8F8BDD6
:100F8000C0229201224311601C68154EA400A3598F
:100F9000002B0CD0002D18D0A551F0E7002DEAD081
:100FA00000220D200F49A55100F0C4F8E3E7002D01
:100FB000E5D000220D200B49A55100F0BBF8DEE77B
:100FC0000D20084900F0A6F9D4E70D20054900F0EE
:100FD000A1F9A551D3E7C04630410140004001408E
:100FE000401000208D0C00100123D02283401206F7
:100FF00093629361094A40219446830063441A68CE
:10100000C0004A40803111408022520113431960D0
:10101000034B9C46052360444360704704C0014075
:101020000040014070B5EFF3108C72B60D4D2B6887
:10103000002BFCD0BFF35F8F0724CB08C618C05C21
:1010400001230C40A3401C000440034207D1184375
:101050003070BFF35F8F2C608CF3108870BD100070
:1010600001F09AFA2C0100D0024B18688007C00FDB
:101070007047C04600C006400021044B044ABFF33D
:101080005F8F02C39342FAD17047C046000100D07F
:10109000800100D0044A1078431CDBB2172B00D922
:1010A000102313707047C046C00200200123834004
:1010B000002904D0034A1360034A13607047034AAF
:1010C0001360FBE780E200E000E100E080E100E087
:1010D000024B10309B688000C058704700ED00E064
:1010E00070B50D00EFF3108672B60F4A1368002B2F
:1010F000FCD0BFF35F8F0D4B10309B6884001B59F1
:101100000B4A934203D09D4201D001F05DFA074B98
:101110009B681D51BFF35F8FBFF35F8F0022024BAF
:101120001A6086F3108870BD240100D000ED00E045
:10113000CD010010F0B54E464546DE465746E0B5B7
:1011400083B0060000919046EFF3108B72B6664AAA
:101150001368002BFCD0BFF35F8F0025634B5D57F6
:101160009A46002D00DA7AE052466B00604C5F1917
:10117000BF000193E31999469B79103613705D4BBC
:10118000B6009B6899590B1B2F2B33D95A4B9942A8
:1011900000D07DE0019B02379C46584B6544AD0072
:1011A0006353574BE719043BDB1B564A1B055B0D8A
:1011B000651913436B80544B0121AB80FF23AB7146
:1011C0004346EB71009BAB604B460B431900494B08
:1011D0009B689951BFF35F8FBFF35F8F0022424B33
:1011E0001A608BF3108803B0F0BCBB46B246A94628
:1011F000A046F0BD01200A008243D37943454AD975
:10120000BC464746884607E05800C01880002018B2
:10121000C179B94229D902000623D356002BF3DA4B
:101220009A464146131DB846BD279C463F02484694
:1012300063460438C01A0005324B400D1843019B29
:10124000908095715A1953469200A418A371434691
:101250002E4AE371009B2260A780A360B7E701F0EC
:10126000B3F9002553465D577EE79A464146131D64
:10127000B84667469C469088043740050015E71934
:101280006044C01BE0270005400D3F020743CEE746
:1012900001F09AF97EE713001D491B1B5B4159437E
:1012A000090D164BBD1CE353154B6519043B5B1B25
:1012B0001B05144D5B0D2B43AC464D466B806546BC
:1012C0000437131FE719DB1B1B055B0D1D434B4642
:1012D00099714146D97100999D80996049460B4B9F
:1012E0000143136073E7C046240100D006130020B9
:1012F000C402002000ED00E0CD01001000A1FFFFBE
:10130000F402002000E0FFFF00BDFFFF014880471E
:10131000AAAA0000F0B5DE4657464E464546E0B55F
:101320000C0083B0EFF3108A72B6604A1368002B8A
:10133000FCD0BFF35F8F1022914681444A465C4B3C
:1013400096009B689D595B4B98469D4205D0A542EF
:1013500016D0594FEB1B2F2B14D9554B9B689D5121
:10136000BFF35F8FBFF35F8F0022504B1A608AF389
:10137000108803B0F0BCBB46B246A946A046F0BDFB
:101380001D00EAE7012383409B465A464B4B1B68EE
:101390001A4000925A464A4B1A60BFF35F8FFEF71D
:1013A00062FF031E01901DD12A0001339A43906809
:1013B000844208D171E04B005B189B00FB189868D1
:1013C000A04245D01A00062151560029F3DA844282
:1013D0006AD0009B002B34D05A463A4B1A60374BE8
:1013E0001A60BAE7814530D12A0001239A439068F8
:1013F0008442E8D1062151561300002940DB4A00FF
:10140000501880003C188046A0689860E079D87138
:1014100006202056987100282FDBA488F81A64054E
:10142000241544440019E0240005400D2402204303
:1014300098805318244A9B001078FB1898711170FB
:10144000C7E75A461E4B1A6087E701F0BDF8CBE7A5
:10145000062159560029D2DA0199002910D1FF310D
:1014600091711A49918018490A789A71184ADB1BC0
:101470005B415A43120D0A70ABE7BD200002D7E76B
:10148000144A1549D21A083A5002400D0143998076
:10149000124952080A43DA809BE70621515613008D
:1014A0000029ACDA4546DEE71300D5E7240100D079
:1014B00000ED00E0CD010010C402002000E100E0DA
:1014C00080E100E080E200E00613002000BDFFFFA5
:1014D000AAAA0000FE02002000F0FFFF00F8FFFFB4
:1014E000F8B5012504000543FEF7BDFEEFF3108CAF
:1014F00072B6214A1368002BFCD0BFF35F8F1F4EDA
:101500002100B7681E4A1F4B891A49414B431B0DE6
:1015100059B28300F858A8421CD00623D3568B42F8
:101520001CD01223D3568B4222D01E23D3568B427B
:1015300020D02A23D35603208B4210D0124B1A7886
:101540001970A271BFF35F8F00220B4B1A608CF3EE
:101550001088F8BDB2680D48D050EFE70020430076
:101560001B189B00D218FF239371094B9380E5E76A
:101570000120F4E70220F2E7240100D000ED00E0B2
:10158000C4020020AAAA000006130020CD0100100A
:1015900000BDFFFF054B064A1360064A1360536007
:1015A0009360D36013615361936170478080808042
:1015B00000E400E004E400E0024B9C466144890042
:1015C000016070474000003483680B4810B58446C2
:1015D000614462441201090159189B185C684A6809
:1015E0000120944201D802D00020C0B210BD1A6878
:1015F0000B689A42F9D8F7E7FFFFFF0F10B5080014
:101600000B690C009847002802D02068616810BD63
:10161000E06000210020FAE70A4B1968EFF3108020
:1016200072B60A68002AFCD0BFF35F8F1B68BFF355
:101630005F8F00221A6080F3108840BF00200021D5
:101640007047C046EC120020F8B5574645464E4656
:10165000DE46E0B598460CAB1C780DAB1B78070056
:1016600091469A460568002C5AD1AC7B002C3BD0A1
:10167000660029683619033E89194B78AB73002B35
:1016800000D1EB7300238B704B700B702B4BE21867
:10169000BB6812019B184A461A6042465A600A9A71
:1016A0009A600B9ADA6000238B704B700B706B7B27
:1016B0009B46002B27D022006B685946A8689847A4
:1016C0005B465B005B442A68033B002812D0584607
:1016D0009619B070D118D35C002B00D073705B46A4
:1016E0000C706B735C450FD0F0BCBB46B246A9468C
:1016F000A046F8BDD3189C709119925D002A00D0C5
:101700005A705B460B706C734A464346387D00F056
:101710000FFC051E0AD10E9B002BE5D01D70E3E7E0
:10172000660029683619033E8919AFE75346002B36
:10173000F1D12100386800F045FEECE7FFFFFF0F14
:10174000F0B5DE4657464E4645460023E0B58DB01F
:101750000A936A4B8200D75800239B460B9000F0F7
:1017600087FB02000B007868EFF3108972B64D46D4
:1017700001680029FCD0A946BFF35F8F39684E7B12
:101780008C46002E2ED0BC685D49A2467118090116
:101790008A4451460868496804000D00A41A9D4116
:1017A000002D5EDD02000B000B9800F0C1FB002352
:1017B00000229A46002308920993002398467B68EA
:1017C000BFF35F8F5A461A6089F310884346002B97
:1017D00012D10028C3D10DB0F0BCBB46B246A94619
:1017E000A046F0BD002300229A46002308920993E8
:1017F000002300209846E2E70A9B51461802304336
:10180000C047069007917A68EFF3108572B6544688
:101810001368002BFCD0A246BFF35F8F0699079A8E
:10182000002A3BDB114302D03B69002B52D13B68BD
:10183000D97B002905D01A68480041185218033A8C
:101840005670DE73FA68013E935D013393555B4633
:101850003B617B68BFF35F8F5A461A6085F310883F
:101860007DE7002D01D1002C9CD10021604600F0C5
:1018700011FD53465C681B680893099453469B68A6
:1018800098465346DB689A46FB689B19013B1B78D8
:101890000A931B0203433B61002090E73B69002B46
:1018A000C5D0089B099C5B1A9441089809991A00B5
:1018B0002300A14219D899421BD000210491013183
:1018C0000391514601914146380002960091FFF77D
:1018D000BBFEBCE700F0CCFA069A079B12184B41FE
:1018E000994202D8E9D19042E7D901225242D31756
:1018F000E3E708999142E0D9F7E7C046C811002014
:10190000FFFFFF0FF8B557464E464546DE46E0B5A9
:101910003E4D824689466A68EFF3108872B61368B6
:10192000002BFCD0BFF35F8F2E68B47B002C48D017
:10193000670033683F19033FDB195A78B273002AF6
:1019400000D1F273324AA118AA680901521851460F
:101950001160494651602F4991600021D160997012
:1019600059701970737B9B46002B41D0220073681D
:101970005946B06898475B465B005B443268033B5E
:1019800000282CD05846D719B870D118D35C002B3A
:1019900000D07B705B460C7073735C4529D00026C9
:1019A000EB681B19013B19786B68BFF35F8F00224E
:1019B0001A6088F310880020002E0AD10802204304
:1019C00007E06B68BFF35F8F1C6088F3108801200D
:1019D0004042F0BCBB46B246A946A046F8BDD3186B
:1019E0009C70D119D25D002A00D05A705B460B70F2
:1019F000747352464B46287D00F09AFA061ECED0EC
:101A00002100286800F0DEFCCAE7C0460C03002075
:101A1000FFFFFF0F1916001010B5124C6368002B62
:101A200004D00A211048FFF7C7FD10BD23000F4A5C
:101A30001021206800F034FB032000F00DFA032091
:101A400000F0E4FA03200A4900F02CFAFFF722FB29
:101A5000084B9C46032360442375074B800060605D
:101A6000DC60DEE70C030020EC120020C91500103A
:101A70004117001040000034C81100200048704792
:101A80000C030020F0B557464E46DE464546110091
:101A9000E0B585B006009C46109F194300D1F5E0E3
:101AA0006146DB170193009353401C00019B4B40A0
:101AB0001D0000980199241A8D4163460E997B60A0
:101AC0000F9B3A607B61BE60396100F0D1F9020082
:101AD0000B00A4185D4100940195A94200D9DFE0F4
:101AE00000D1D9E000239846724B1097039300234E
:101AF0009946109B3700464698467A68EFF3108B5C
:101B000072B61368002BFCD0BFF35F8F3D68AC7BCF
:101B1000002C00D174E063001B19033B1A009446AB
:101B200002932B6863445A78AA73002A00D1EA739F
:101B3000614AA118BA680901521800980199106009
:101B40005160039991604146D1604A469A705A703B
:101B50001A706B7B9A46002B00D180E022006B68E4
:101B60005146A868984753465B0053442A68033B94
:101B7000002800D169E0D1188C465146029810180F
:101B80008170D35C002B00D0437063461C705346B9
:101B90006B733500544563D0FB687A681B19013BB1
:101BA0001B78BFF35F8F494611608BF31088002DBF
:101BB0000CD147461B02234301352800FB6005B0CA
:101BC000F0BCBB46B246A946A046F0BD43464046DF
:101BD0001B699847061E1FD043460CCB10001843C4
:101BE00064D014001D1E1ADA0098019902000B003F
:101BF000121BAB41994222D83FD0009201937CE75F
:101C00003E0047467368BFF35F8F1C608BF31088FC
:101C1000012300255B42D0E747460023CDE700F0D3
:101C200027F902000B00A4185D4100940195A94218
:101C300005D800D061E700998A4200D85DE701230A
:101C40005B42DC170093019457E70298D3189C700D
:101C50001118125C002A00D05A7053460B706C7336
:101C6000387D009A019B00F063F9051E00D193E7CF
:101C70002100386800F0A6FB8EE700999142BCD99C
:101C800001235B42DC170093019436E70023012413
:101C9000002501229C4610E700998A4200D821E7DE
:101CA00001235B42DC17009301941BE74746350094
:101CB000002382E7FD150010FFFFFF0FF0B50400C1
:101CC0000D0006267642F717C64636196F4100B555
:101CD0008F4213D810D000F0CBF832003B00121A1C
:101CE0008B41002B14DC002B37D02900200000F0A2
:101CF000C9F880BCB846F0BD8642ECD90026002762
:101D000000F0B6F832003B00121A8B41002BEADDDE
:101D100030003900FFF7F6FD0028E6DB0023984687
:101D2000BC460F4A0F4F7B6A9C4504D8B96AB14242
:101D3000DBD29C45D9D11168EFF3108072B60B68E5
:101D4000002BFCD0BFF35F8F1368BFF35F8F41465A
:101D5000196080F3108820BFE5E7002AC5D0D7E7D7
:101D6000EC1200200040054070B5060000F080F83D
:101D7000FA2204000D00002330000021920000F040
:101D8000D5FE001969418D4205D802D0FFF796FFB4
:101D900070BD8442FAD901204042C117F6E7C0461F
:101DA000F0B5D6464F464646C0B5EFF305823F2311
:101DB000134018001038EFF3108C72B620490A68EF
:101DC000002AFCD0BFF35F8F0122170087401D4C13
:101DD0001600A24667631C4C2578A0462C00C44020
:101DE0002640224215D05246566A184A8400A2580C
:101DF000964218D34246164BBD43E3581570BFF3C5
:101E00005F8F00220A608CF31088002B06D0984761
:101E100004E0BFF35F8F0E608CF31088E0BCBA461D
:101E2000B146A846F0BD0B4A9B00904643441A6851
:101E30001A60BFF35F8F00230B608CF31088EDE70F
:101E4000280100D00040054008130020F0120020B7
:101E50002C0F0020D03F054010B5034B01001800A7
:101E6000024AFFF7DFF810BD01130020C038001050
:101E7000034B596A0A00986A596A8A42FAD1704734
:101E800000400540064A536A9942FCD807D1044BEA
:101E900002E05A6A914202D19A6A8242F9D37047AB
:101EA0000040054070B504000D00EFF3108672B6D7
:101EB0001A4A1368002BFCD0BFF35F8F002D1BD094
:101EC0002000FFF705F9164981420AD02000FFF7EC
:101ED00007F901212000FFF7E9F80123A340114A87
:101EE0001360114BA400E550BFF35F8F00220B4B32
:101EF0001A6086F3108870BD0121A1400A4BA20030
:101F0000D5500A4B20001A788A4305491A70FFF70A
:101F100001FA00212000FFF7C9F8E5E7280100D009
:101F2000A11D0010386005402C0F00200813002070
:101F3000F0B54F46D6464646C0B507002E4C616AFE
:101F40000D00A66A616AA942FAD18B4208D805D071
:101F50000120E0BCBA46B146A846F0BDB242F7D96E
:101F6000EFF3108A72B6254801680029FCD0BFF350
:101F70005F8F0125BD4022491F4C8846097889465C
:101F80002943C9B28C46414660460870391D890014
:101F900065630A511B49B8004350216A0020294259
:101FA00019D0616A0800A66A616A8142FAD18B423F
:101FB00019D801D1B24216D8CC450BD00E4B1F22F6
:101FC0001D625D6301233A4093400F4A136043460C
:101FD0004A461A700120BFF35F8F0022074B1A6038
:101FE0008AF31088B5E70020BFF35F8F0022034B10
:101FF0001A608AF31088ACE700400540280100D041
:1020000008130020F012002080E200E0EFF3108CB3
:1020100072B60A490B68002BFCD0BFF35F8F012317
:102020008340074A0748136202789A430270BFF35D
:102030005F8F00230B608CF310887047280100D05D
:10204000004005400813002070B506000D00140084
:1020500000291DD0002A12D073688068984762005A
:102060006B0012195B193168033A033B002808D052
:102070008A189570C818CB5C002B0BD1047028000F
:1020800070BDCB189C7088188A5C002A05D1057039
:102090002000F5E753700470F1E75A700570F7E718
:1020A00010B583600023CCB24373013342600473E4
:1020B0008373C4730068421C012C05D90133DBB261
:1020C000137003329C42F9D1FF230B405A00D318FE
:1020D000C01800230338437010BDC04670B505001A
:1020E0000C1E07D0630001681B19033BCB185A78FC
:1020F000002A01D1200070BD500080180338091853
:1021000000204E784870210058702800FFF79CFF8F
:10211000310004002800FFF7E1FF0600002C20D06A
:102120000028E7D0320021006B68A8689847720049
:10213000630092191B192968033A033B002808D051
:102140008A189470C818CB5C002B00D053700670AE
:10215000D0E7CB189E7088188A5C002A00D05A708D
:1021600004703400C6E7C046F8B557464E464546AB
:10217000DE464C00E0B5641817000268033C050019
:10218000105D13190E009C46002852D0430098465B
:102190001B18033BD31859788A46002919D1002F00
:1021A0000CD0EC7B002C50D063001B19D318033BE0
:1021B0005E70EE73434619180339531800229A7063
:1021C000002362465370F0BCBB46B246A946A04607
:1021D000F8BD49005144033952185178884600210E
:1021E000517089465970524601002800FFF72CFFB4
:1021F00043468246002B07D05B0029684344033BDB
:10220000CB185A78002A2CD1514642462800FFF7B5
:102210001BFF0100002F1AD0A4462A68EF7B9444CC
:10222000002F04D07B00DB19D318033B5E70EE73E4
:1022300010E0002FC4D0E97B002910D04B005B18C0
:10224000D318033B5E70EE73BAE7EE73B6E7A446AD
:102250002A6894440029B3D04B009846AAE7EE734D
:10226000AEE750008018033809184878834648467E
:102270004870587041462800FFF7E6FE59468046F0
:102280002800FFF72BFF414602002800FFF7DCFE85
:102290008046B9E7F8B557464E464546DE46E0B5B6
:1022A000467B02687500AD19033D0F00515D53195F
:1022B00004009C46002953D04B0098465B18033B12
:1022C000D3185878824600281BD1002F0CD0E57B0C
:1022D000002D51D06B005B19D318033B5E70E67381
:1022E000434658180338131800229A700023624698
:1022F000300053706173F0BCBB46B246A946A0469D
:10230000F8BD400050440338121850788046002031
:1023100050708146587052462000FFF795FE4346A4
:102320008246002B07D05B0021684344033BCB1857
:102330005A78002A2CD1514642462000FFF784FEED
:102340000100002F1AD0AC462268E77B9444002F8E
:1023500004D07B00DB19D318033B5E70E67310E0FA
:10236000002FC3D0C07B002810D043001B18D31807
:10237000033B5E70E673B9E7E673B5E7AC462268E7
:1023800094440028B2D043009846A9E7E673ADE72D
:10239000500080180338091848788346484648702A
:1023A000587041462000FFF74FFE594680462000F6
:1023B000FFF794FE414602002000FFF745FE8046ED
:1023C000B9E7C04670B5050000292CD0437B8B428D
:1023D0002ED04C0000686418033C0419A278002A2F
:1023E00021D053009B18033BC25CC6188A4202D11D
:1023F0001BE0002A08D053009B18033BC3185A78EF
:102400008A42F6D162785A70002301222800A37014
:102410006370FFF7A9FE697B02002800FFF714FE36
:102420006873012000E0002070BD63783370EBE733
:1024300001221900FFF798FEF2E7C04610B504002C
:10244000FEF728FE01002000FFF7B6F8FF232371F6
:10245000BFF35F8F10BDC04610B50400FEF71AFE33
:1024600001002000FFF7A8F8FF23A380BFF35F8FD0
:1024700010BDC0462B4B2C4A70B51A602B4A2C4B12
:102480002C491A6014008B689C43FBD12A4D2B4EBB
:10249000B54208D2013E761BB60808CD9847230006
:1024A0000134B342F9D100F095F8254A204B1A6067
:1024B000204A9368DB43DB01DD09002BF9D1402280
:1024C000204B214E214C9A675A671A67DA66B4424C
:1024D00008D2236820000834002B1FD0FFF7BCFF70
:1024E000B442F6D31A4C1B4EC022B168200000F053
:1024F0009DFBB460FEF7C0FDFFF74CF8FFF78CFAC8
:10250000154C164EB44208D2013E361BB60808CC14
:1025100098472B0001359E42F9D170BDFFF78EFF21
:10252000D5E7C04600E00040BFCDFBFEFE7F3C008B
:1025300000F0004000C00040AC0B0020BC0B0020AD
:10254000FFFFFF0100F00140AC0B0020A40B0020B6
:102550000000002000ED00E0BC0B0020C40B0020B8
:10256000094A03001068002805D00849C3188B42A7
:1025700007D81360704706480449C31810608B429F
:10258000F7D901204042F5E7A811002000000420FF
:102590000C13002000BEFDE70FB400B5084883B05F
:1025A00000F0E6FB049B002B07D005A91800019161
:1025B00000F0E2F9034800F0DBFB00BEFDE7C04697
:1025C000E4380010F438001010B50148FFF7E4FFBC
:1025D000F838001010B50C2082B000F0A9F9FEF711
:1025E00043FD002810D0864B86488649864A1860ED
:1025F00059609860D960186159619861D961186211
:1026000059625A6202B010BD804CA06700F098F980
:1026100001227F4B1A60636C012BFCD103227D4B9E
:102620001A607A4A936B012BFCD1013301217A4A5B
:102630007A480093043300F027F90523784A009381
:102640000121784800F020F9774B5A68FF2A02D818
:10265000802252005A6080226E4B694C12011A602F
:102660002169002905D0606900F0D8F901300138EE
:10267000FDD1E0226C4B6D4819680A4002600222CD
:102680001968514001320A40042102609A681142DF
:10269000FCD08021664A09011160802252005A60F4
:1026A000644B2361644B5968FF2900D85A600322A8
:1026B0000121574B1A60604A93681942FCD0E0230D
:1026C000106803405D480360126803234A400221FA
:1026D0001340594A036093681942FCD08021584B3B
:1026E000090119608021574B490051606361564BC5
:1026F0005A68FF2A00D859608022544B12011A6090
:10270000E169002905D0606900F088F901300138DD
:10271000FDD1E0234C4A11680B404D490B608021EC
:102720004C4B090119608021364B49005160E3612F
:10273000494B5A68FF2A00D859608022474B120142
:102740001A60216A002905D0606900F067F901303C
:102750000138FDD1E023404A11680B4040490B602D
:102760008021404B0901196080235B005360802267
:10277000244BD20223623C4B5968914200D25A60EA
:1027800080223A4B12011A60616A002905D0606903
:1027900000F044F901300138FDD1E023324A1168DC
:1027A0000B4033490B608021324B090119608023B3
:1027B000DB025360144B63622F4B5A68FF2A02D826
:1027C000802252005A6080222C4B12011A60A169AB
:1027D000002905D0606900F021F901300138FDD1F0
:1027E000E023254A11680B4025490B608021254BC9
:1027F0000901196080235B005360124BA36101E75C
:10280000C80B0020006CDC021BB7000000800040F9
:102810003CB0004030B00040002F685900800240BA
:10282000008C864700C0024030800040309000405D
:1028300030A00040001BB7003C8000403C900040AE
:102840003CA00040405973075480004054B0004001
:102850005490004054A000406080004060B00040B0
:102860006090004060A000406C8000406CB0004070
:102870006C9000406CA000404880004048B0004090
:102880004890004048A00040F8B504000C20170014
:102890001D000E0000F0C2F843011B1A9901C91A6D
:1028A000C90009188901380000F0B8F8069B29040E
:1028B0001B0319432368002B20DB194B194DE31828
:1028C0005A4253418022520194461B03164A6344E4
:1028D0001360164A13601F00AA689743FBD1C023F8
:1028E000221D9B01134321222660A0601A602268EA
:1028F000002AFCDA0822E1601A60F8BD3F23226852
:102900001340B342D9D1A3681B051B0D8342D4D118
:10291000EE22E368D20213408B42CED1EDE7C046EF
:102920000040FDBF00C0004000E0004000F000405B
:102930008023024A9B000343D36270470080054016
:10294000AA23064A1B0113602F230549D360054BB8
:1029500019605368002BFCDA7047C0460040024003
:1029600000B0FA000060024010B5002800D110BD90
:1029700000F0ACF9FBE7C04610B5094A0300146843
:1029800084B0002C08D0012200910648524203A9CD
:10299000A047012004B010BD00F0EAF90020F9E7DB
:1029A000AC1100206929001001480421014B18478F
:1029B00040030020D9290010142310B50100188805
:1029C00004331B88984710BD162310B501001888E2
:1029D00002331B88984710BDF8B54746CE4680B5F0
:1029E0000F1E19D014239946043304000025012634
:1029F00098464B461888434621681B88984701C46F
:102A0000431E9841013540420640AF42F1D13000AB
:102A1000C0BCB946B046F8BD0126F8E7114A936F2D
:102A20009B0813D210665166002905D0FFE7FFE727
:102A3000FFE7516F106F704704B5002801D00020E8
:102A4000C04300F0F5FE002104BDC046F0B5146E91
:102A5000556E576F166FFFF7E5FF1466556657679B
:102A60001667F0BD000000D0132370B51D78012D4E
:102A700015D010DD1D48FFF7A7FF1D4C0100802277
:102A8000200000F0D3F8022D2DD01A48FFF794FF54
:102A9000194B186070BD194B154CA364F5E7174B23
:102AA000134C23606360A360E36023616361A361EF
:102AB000E36123626362A362E36223636363A363EC
:102AC000E36323646364A364E36423656365A365CC
:102AD000E36523666366A366E36623676367A367AC
:102AE000E367A364D1E7054BA364CEE7534400003A
:102AF000F00C00204C330000E8120020012B0010E5
:102B000007B5604601880A0A0230DF2AFAD1C9B245
:102B1000820804D3028840880004104300E0006863
:102B2000014A5050039007BDF00C0020514343432D
:102B3000C9188C46110C83B24B4310B4040C61438A
:102B400092B280B2504362431C041B0C001910BCAB
:102B500059411304120CC0185141614470470000E0
:102B6000132310B512481C78FFF72EFF0100012C2B
:102B70000AD003DD80220F4800F058F80E48FFF716
:102B80001BFF0E4B186010BD0A4C5422200000F0B1
:102B90004DF80B4B6365A365E36523666366A36627
:102BA000E36623676367A367E3672362E361E5E79F
:102BB00053460000F00D00204C330000E8120020C6
:102BC000C52B001007B5604601880A0A0230DF2ACB
:102BD000FAD1C9B2820804D30288408800041043A5
:102BE00000E00068014A5050039007BDF00D00203E
:102BF00010B5040000F04CF9002804D0034B041970
:102C00009C4200D810BD0248FFF7C6FC000004201B
:102C10000439001010B500F045F910BD0148042139
:102C2000014B184750030020D9290010014B5B6865
:102C30001847000050030020F0B5C64600B5437C9D
:102C400007000D001600002B38D0002A2EDD0021D1
:102C50006A1E90466A5C037C4C1C00200A2A0CD039
:102C6000A64216D043461B5D21000D3B5A425341FC
:102C70006A5CDBB24C1C0A2AF2D1002BF0D18142F3
:102C800017DC022110483B689847A64207D0200075
:102C9000E8E7864203DD311A3B6828189847AD19EA
:102CA000013D2B780D3B5A4253413B7480BCB846E2
:102CB000F0BD091A3B6828189847E2E7036811003D
:102CC00028009847F2E7C04678390010F0B5CE46A4
:102CD000474680B583B06B46DE1CD02330701B06A0
:102CE0001C68204B804601A91800994600F0A8FDF9
:102CF000071E20D01C4B1C68002C29D01B4D02E065
:102D0000E468002C0FD02368002BF9D02B68002B2F
:102D100001D0A342F4D1200001223100FFF78CFF43
:102D2000E468002CEFD1002F12D1404603B0C0BCA4
:102D3000B946B046F0BD019B64B29C420CD04846F7
:102D400000F08EFD084B1C68002C01D00127D5E750
:102D5000484600F05DFDE8E7034B1C68002CCDD130
:102D6000E3E7C046A40B002088100020901000204C
:102D7000F0B5DE4645464E465746E0B583B0060000
:102D800000F076FBD0231B061C68304B050001A920
:102D900018009B4600F054FD804600283DD02C4B87
:102DA0001C689A46002C47D00A232A4F994602E015
:102DB000E468002C17D02368002BF9D03B68002B67
:102DC00001D0A342F4D120002A003100FFF734FFE4
:102DD0006B464A4620001A7101A90122FFF72CFF19
:102DE000E468002CE7D14346002B25D153461C68EC
:102DF000002C06D06368002B0BD09847E468002CA9
:102E0000F8D1280003B0F0BCBB46B246A946A046A4
:102E1000F0BDE468002CEDD1F3E7019B64B29C4265
:102E20000ED0584600F01CFD094B1C689A46002C39
:102E300002D001239846B7E7584600F0E9FCD5E7F1
:102E4000034B1C689A46002CAED1DAE7A40B002095
:102E5000881000209010002010B5010000230022EF
:102E6000002000F033FB10BD70B5074C074D641B0C
:102E7000A41005D0013CA300EB589847002CF9D1D1
:102E800000F0C2FC70BDC046C40B0020C40B002083
:102E900010B5034B0100186800F00EF810BDC046D5
:102EA0006003002010B5034B0100186800F0BEFB62
:102EB00010BDC04660030020F0B54E464546DE46D4
:102EC0005746E0B50D000B35060083B0162D21D80E
:102ED000102900D99FE000F0A9FA1025182302213B
:102EE000C74FFB181A005C68083A944200D1A2E070
:102EF000032263689343E268A168CA60916001217C
:102F0000E3185A6830000A435A6000F097FA20002C
:102F1000083083E007239D437DD4A9427BD800F08D
:102F200085FAFC235B009D4200D2A2E1690A00D130
:102F30007BE0042900D957E138239846A909884441
:102F40003931C800AE4F381844680838A0420ED056
:102F500003239C4604E0002ACDDAE468A04206D0B0
:102F60006246636893435A1B0F2AF4DD41463A00D8
:102F70003C690832944268D00320636883439946D1
:102F8000581B0F2800DD78E17A613A610028B6DA33
:102F900080229200934200D3FEE05809DA08012310
:102FA0008340D2007868D219034390687B60E26066
:102FB000A0609460C46001208A10904098424AD872
:102FC000034205D103229143400004310342FBD068
:102FD00003239846CB009946B944CC468A466346BB
:102FE000DB680BE044465A689B46A243DB68541BEF
:102FF0000F2C00DD14E1002C00DB2BE19C45F1D10E
:1030000008239B46073BDC449B46DA444346524632
:103010001342E4D16BE10C230020336003B0F0BC19
:10302000BB46B246A946A046F0BD80203F234021C2
:103030009846800086E7DC680231A34200D057E75B
:103040003A003C690832944296D101207B688A108C
:1030500090409842B4D90322BC68636893439A466F
:103060009D4203D85B1B0F2B00DD87E023005344F8
:10307000644A0193644B90461B681268EB18013256
:1030800000D149E1614A944663441B0B1B03009342
:103090003000009900F0DAF903008146013300D1D5
:1030A00006E1019B834200D900E1594B00989B4601
:1030B000844659461B6863440B6001991A004945D0
:1030C00000D15FE143461B68013300D164E14B4608
:1030D00001995B1A9B185A46136007234A464946D2
:1030E0001A400192194200D120E18B1A0821894629
:1030F00000999944474B49449B1A5B1A1B051B0DC9
:10310000009130001900984600F0A0F9431C00D14E
:103110005EE14B46C01A0300434400935B465A46A7
:103120001B680120434413604A464946BA60009A2E
:1031300002434A60BC4200D132E152460F2A00D815
:1031400030E107210C3A8A436168014005201143B0
:103150006160A118486088600F2A00D943E14A469F
:103160004C4652682C490868984200D20B602B49A3
:103170000868984200D39DE00B609BE00122290083
:1031800013431143651961603000BD606B6000F04E
:1031900055F92000083041E75A0A042A00D87FE098
:1031A000142A00D9D2E010005C325B30D200082330
:1031B0005B429C46BA18944463469A680323984637
:1031C000944500D1ABE0434650689843484502D946
:1031D00092689445F7D1D3689C467B686046A260AC
:1031E000E0608460D460E6E6142970D9542900D9DF
:1031F000B4E06E239846290B88446F31C800A1E6DD
:1032000090070020980B0020280F00200F100000CE
:10321000F80E002008100000200F0020240F0020CE
:10322000012059468446491905435846456085683A
:103230006046EB609D605B467961396120430837E9
:103240004860CF6030008F609C5000F0F7F858461F
:103250000830E3E601205A445168014351605A4660
:1032600092683000D3609A6000F0E8F85846083061
:10327000D4E62B00E908083332E6012361191D4327
:10328000656079613961CA608A601A004B46024301
:103290004A60E050300000F0D1F820000830BDE670
:1032A0009A09100039323830D20080E7BC4260D031
:1032B000BC68626803239A43531B954202D80F2BC4
:1032C00000DD5BE7300000F0B9F80020A6E65B23E4
:1032D000984688445C31C80034E608235B429C462B
:1032E000E1444B469B6801394B4500D098E043468A
:1032F0000B42F2D17B6883437B604000984200D947
:10330000A9E6002804D1A6E6042294464000E2443F
:103310000342F9D051465DE610330093B8E68010C1
:10332000023B8340786803437B6057E7009B300093
:103330004B445B421B051B0D1900984600F086F8B4
:10334000431C00D0E5E600239846E7E6542A2BD834
:103350001A0B10006F326E30D20028E7AA235B00F0
:1033600099422BD8DD3B9846E90B88447831C80058
:10337000E8E52C4B9B461A68009B9C465B466244E2
:103380001A609FE6090500D09CE60200BC68524422
:1033900001310A436260E5E643464A461A609CE60C
:1033A0004C46DFE648608DE7AA204000824224D8E0
:1033B000DA0B100078327730D200F8E61A4B9942D7
:1033C00024D87C239846A90C88447D31C800B9E5EF
:1033D000009A019B94464A46083B63449B1A00931B
:1033E000002398469AE621003000083100F01EF9CB
:1033F0005B46BC681B686268B4E60B4882420BD827
:103400009A0C10007D327C30D200D0E6FE207E2364
:103410007F219846800095E5FE227E209200C6E638
:103420007B686AE7F80E00205405000010B50248DA
:1034300000F0E6F910BDC046F40E002010B50248B9
:1034400000F0E0F910BDC046F40E0020002370B576
:10345000064C050008002360FFF782F8431C00D0EB
:1034600070BD2368002BFBD02B60F9E78C10002087
:1034700010B583070AD00300032102E001330B4299
:1034800005D01A78002AF9D1181A10BD030019685E
:103490000C4A0D4C8A188A4322420FD15968094AB6
:1034A00004338A188A43224208D15968054A0433F2
:1034B0008A188A432242F1D000E001331A78002AA8
:1034C000FBD1E1E7FFFEFEFE80808080F0B5D646AE
:1034D0004F4646469846264BC0B5060018689146AA
:1034E0009A460F0000F08CF9A422224B52001B6870
:1034F0009D58002D32D053466C6818681F2C32DC62
:10350000002E0CD1631C0234A4006B60675100F0E4
:1035100079F90020E0BCBA46B146A846F0BD49465C
:103520008822A300EB189950C42149008C46AC4472
:103530006146873AA240096891461143624611608C
:103540008421424649005A50022EDBD129004A46C6
:103550008D31FF310B6813430B60D3E71D004D35F0
:10356000FF359D50C7E700F04DF901204042D1E7FB
:10357000A00B00207C390010034B10B5002B02D0AB
:103580000248FFF769FC10BD00000000692E001022
:10359000F8B50C000500FFF749FF204FBB685E68D7
:1035A00003239E431E4B341B9C466444240B013C66
:1035B000113324039C4207DB00212800FFF746FF5C
:1035C000BB689B19984204D02800FFF737FF002002
:1035D000F8BD28006142FFF739FF01300DD001220C
:1035E000361BBB6816430F4A5E60136828001B1B1E
:1035F0001360FFF723FF0120EAE700212800FFF70F
:1036000025FFBA68831A0F2BDEDD074C05492468B5
:10361000001B086001210B435360D5E79007002091
:10362000EF0F0000F80E0020980B0020F8B5CE46F2
:10363000474605000C0080B5002959D0FFF7F6FE7B
:103640002100083948680123020003249A438F1897
:103650009C46664E7B68A343B468BC4200D172E0CE
:10366000FC18A14664467B60044224D10868091A0C
:103670001218886880464846406820403400083464
:103680008146A04553D04046CC68C460A0604846FF
:10369000002814D1D21801238C18A446B868544CC1
:1036A0001343A04200D17DE0FC68C460A0604B6081
:1036B00063461A6007E0484640682042EAD0634605
:1036C00013434B603A6080239B009A4214D2500906
:1036D000D308012282407068DB009B1902437260AC
:1036E0009A68CB608A609960D1602800FFF7A6FED7
:1036F000C0BCB946B046F8BD540A042C3CD8940965
:10370000200039343830E40034192368083C03279A
:103710009C4240D05868B843904202D99B689C4272
:10372000F8D1DC68CC608B60A160D960DDE700284F
:1037300057D1B8689A18FB68C36098606346134312
:103740004B608A50D1E7D3186246024206D10A681C
:10375000891A88689B18CA68C260906001221A435F
:103760004A60244AB16012689A42BED8224B2800AF
:103770001968FFF70DFFB8E7142C07D9542C19D896
:10378000140B20006F346E30E400BDE720005C3481
:103790005B30E400B8E70122801082407068024389
:1037A0007260BFE7C16081604B606346C86088603B
:1037B0001A609AE7AA204000844205D8D40B200062
:1037C00078347730E4009FE70C48844205D8940CA5
:1037D00020007D347C30E40096E7FE247E20A400A7
:1037E00092E7634613434B603A607EE79007002000
:1037F000980700209C0B0020280F00205405000093
:103800007047C0467047C046F8B5C046000000008B
:1038100001B40248844601BC604700BF4901002052
:1038200001B40248844601BC604700BF2D0200205D
:1038300001B40248844601BC604700BFAD020020CD
:1038400001B40248844601BC604700BF0901002062
:1038500001B40248844601BC604700BFAD010020AE
:1038600001B40248844601BC604700BFC10000208B
:103870000EFF0706FF0000001BFF1A16FF000000E6
:1038800000007E3E4220423C4204427C7E400000DA
:103890000000380024002400380020002000000030
:1038A0000000000000000000000000000000000018
:1038B0000000000000000000000000000000000008
:1038C000486172647761726520616C61726D202558
:1038D0006420616C726561647920636C61696D65F7
:1038E000640000000A2A2A2A2050414E4943202A17
:1038F0002A2A0A000A00000048617264206173737A
:10390000657274004F7574206F66206D656D6F72FF
:103910007900000052656C6561736500626F6F74B9
:10392000325F77323571303830000000312E342E5E
:10393000300000007069636F000000004A55535466
:103940002D534E414B4500004F63742033302032DD
:103950003032320006005250D3F075421439001054
:1039600006005250E182887F1C3900100600525038
:10397000BBFF3CB6343900100D0A0000680300207C
:103980005439001060390010900200106C3900109A
:0C3990009C020010A8020010B4020010FD
:10399C00D02330B500251B0600245D5706E00368D4
:1039AC00BFF35F8F1C6081F3108820BF0268EFF3B8
:1039BC00108172B61368002BFCD0BFF35F8F0379B4
:1039CC007F2BECD905710368BFF35F8F00221A605F
:1039DC0081F3108830BDC04603000068EFF3108CF3
:1039EC0072B60268002AFCD0BFF35F8F04229A568D
:1039FC00002A04DB002900D00A60002004E0D02259
:103A0C000120120612681A711B68BFF35F8F002227
:103A1C001A608CF3108870470268EFF3108172B64D
:103A2C001368002BFCD0BFF35F8FFF230371036877
:103A3C00BFF35F8F00221A6081F3108840BF70477C
:103A4C0010B5084C2378002B0AD18023064807496F
:103A5C005B051A68C25004338B42FAD101232370E0
:103A6C0010BDC04600130020400F001000010010D4
:103A7C0010B5014B984710BD410F0020F0B58023C5
:103A8C00D6464F464646421804000D00C0B59B036F
:103A9C009A4227D814271826388833881349984710
:103AAC0033888246124938889847338881461149B1
:103ABC0038889847338810498046388898470600DC
:103ACC00FFF7BEFFD047C84780222900D82320002B
:103ADC005202C047B047FFF7CBFFE0BCBA46B14635
:103AEC00A846F0BD00F04CF8D4E7C04649460000AB
:103AFC00455800005245000046430000F8B54E46BC
:103B0C004546DE4657468023E0B515008218040072
:103B1C0089469B039A4226D814271826388833885E
:103B2C001249984733888346114938889847338817
:103B3C00824610493888984733880F498046388820
:103B4C0098470600FFF77CFFD847D0472A00494624
:103B5C002000C047B047FFF78BFFF0BCBB46B24616
:103B6C00A946A046F8BD00F00BF8D5E74946000081
:103B7C004558000052500000464300007047C046B4
:103B8C0001B40248844601BC604700BFC92500103F
:103B9C001000000000000000000001000000000008
:103BAC000000000000000200000000000000000007
:103BBC000000030000000000000000000000FF00F7
:103BCC000000000000B5486801318E460047704681
:103BDC0009380149884700BDE11400102403002076
:103BEC0000000000F00B0020481000200000000036
:103BFC000000000058100020000000000000000031
:103C0C001000000000000000000000000000000098
:103C1C00503300004C33000054330000523300008A
:103C2C004D5300004D43000053340000433400005A
:103C3C006803002000000000000000005406002073
:103C4C00BC0600202407002000000000000000003B
:103C5C000000000000000000000000000000000058
:103C6C000000000000000000000000000000000048
:103C7C000000000000000000000000000000000038
:103C8C000000000000000000000000000000000028
:103C9C000000000000000000000000000000000018
:103CAC000000000000000000000000000000000008
:103CBC0000000000000000000000000000000000F8
:103CCC0000000000000000000000000000000000E8
:103CDC0000000000000000000000000000000000D8
:103CEC0001000000000000000E33CDAB34126DE675
:103CFC00ECDE05000B0000000000000000000000DE
:103D0C0000000000000000000000000000000000A7
:103D1C000000000000000000000000000000000097
:103D2C000000000000000000000000000000000087
:103D3C000000000000000000000000000000000077
:10406C0000000000000000009007002090070020D6
:10407C009807002098070020A0070020A007002028
:10408C00A8070020A8070020B0070020B0070020D8
:10409C00B8070020B8070020C0070020C007002088
:1040AC00C8070020C8070020D0070020D007002038
:1040BC00D8070020D8070020E0070020E0070020E8
:1040CC00E8070020E8070020F0070020F007002098
:1040DC00F8070020F8070020000800200008002046
:1040EC0008080020080800201008002010080020F4
:1040FC0018080020180800202008002020080020A4
:10410C002808002028080020300800203008002053
:10411C003808002038080020400800204008002003
:10412C0048080020480800205008002050080020B3
:10413C005808002058080020600800206008002063
:10414C006808002068080020700800207008002013
:10415C0078080020780800208008002080080020C3
:10416C008808002088080020900800209008002073
:10417C009808002098080020A0080020A008002023
:10418C00A8080020A8080020B0080020B0080020D3
:10419C00B8080020B8080020C0080020C008002083
:1041AC00C8080020C8080020D0080020D008002033
:1041BC00D8080020D8080020E0080020E0080020E3
:1041CC00E8080020E8080020F0080020F008002093
:1041DC00F8080020F8080020000900200009002041
:1041EC0008090020080900201009002010090020EF
:1041FC00180900201809002020090020200900209F
:10420C00280900202809002030090020300900204E
:10421C0038090020380900204009002040090020FE
:10422C0048090020480900205009002050090020AE
:10423C00580900205809002060090020600900205E
:10424C00680900206809002070090020700900200E
:10425C0078090020780900208009002080090020BE
:10426C00880900208809002090090020900900206E
:10427C009809002098090020A0090020A00900201E
:10428C00A8090020A8090020B0090020B0090020CE
:10429C00B8090020B8090020C0090020C00900207E
:1042AC00C8090020C8090020D0090020D00900202E
:1042BC00D8090020D8090020E0090020E0090020DE
:1042CC00E8090020E8090020F0090020F00900208E
:1042DC00F8090020F8090020000A0020000A00203C
:1042EC00080A0020080A0020100A0020100A0020EA
:1042FC00180A0020180A0020200A0020200A00209A
:10430C00280A0020280A0020300A0020300A002049
:10431C00380A0020380A0020400A0020400A0020F9
:10432C00480A0020480A0020500A0020500A0020A9
:10433C00580A0020580A0020600A0020600A002059
:10434C00680A0020680A0020700A0020700A002009
:10435C00780A0020780A0020800A0020800A0020B9
:10436C00880A0020880A0020900A0020900A002069
:10437C00980A0020980A0020A00A0020A00A002019
:10438C00A80A0020A80A0020B00A0020B00A0020C9
:10439C00B80A0020B80A0020C00A0020C00A002079
:1043AC00C80A0020C80A0020D00A0020D00A002029
:1043BC00D80A0020D80A0020E00A0020E00A0020D9
:1043CC00E80A0020E80A0020F00A0020F00A002089
:1043DC00F80A0020F80A0020000B0020000B002037
:1043EC00080B0020080B0020100B0020100B0020E5
:1043FC00180B0020180B0020200B0020200B002095
:10440C00280B0020280B0020300B0020300B002044
:10441C00380B0020380B0020400B0020400B0020F4
:10442C00480B0020480B0020500B0020500B0020A4
:10443C00580B0020580B0020600B0020600B002054
:10444C00680B0020680B0020700B0020700B002004
:10445C00780B0020780B0020800B0020800B0020B4
:10446C00880B0020880B0020FFFFFFFF00000200DC
:10447C00F00E002000000000000000001D2C0010B9
:10448C00A9290010692A0010612B00107935001041
:04449C00C502001045
:04000005100001E9FD
:00000001FF
